:020000041000EA
:1000000000B5324B212058609868022188439860DF
:10001000D860186158612E4B002199600221596106
:100020000121F02299502B49196001219960352056
:1000300000F044F80222904214D00621196600F024
:1000400034F8196E01211966002018661A6600F04E
:100050002CF8196E196E196E052000F02FF8012189
:100060000842F9D1002199601B49196000215960AB
:100070001A491B48016001219960EB211966A021F2
:10008000196600F012F800219960164914480160C1
:100090000121996001BC002800D000471248134993
:1000A000086003C880F30888084703B5996A0420EC
:1000B0000142FBD001200142F8D103BD02B5186610
:1000C0001866FFF7F2FF186E186E02BD00000240BE
:1000D000000000180000070000035F00212200005C
:1000E000F4000018222000A00001001008ED00E03C
:1000F00000000000000000000000000074B24E7A12
:1001000000200420F7010010CB010010CD010010E9
:10011000C9010010C9010010C9010010C901001077
:10012000C9010010C9010010C9010010CF01001061
:10013000C9010010C9010010D1010010D301001045
:10014000C1010010C1010010C1010010C101001067
:10015000C1010010C1010010C1010010C101001057
:10016000C1010010C1010010C1010010C101001047
:10017000C1010010C1010010C1010010C101001037
:10018000C1010010C1010010C1010010C101001027
:10019000C1010010C1010010C1010010C101001017
:1001A000C1010010C1010010C1010010C101001007
:1001B000C1010010C1010010C1010010C1010010F7
:1001C000EFF30580103800BE00BE00BE00BE00BECA
:1001D00000BE00BEF2EB8871D0870410F0870410D7
:1001E0003802001090A31AE71E481F49086006C88D
:1001F00081F3088810471D480068002801D019487D
:10020000F3E70DA40ECC002902D000F012F8F9E7B4
:100210001749184A002000E001C19142FCD116495B
:100220008847164988471649884700BEFDE701C937
:1002300001C29A42FBD37047F0870410C00000202F
:1002400098140020C89B0410000004200000042023
:10025000C89B0410001004200010042000000000BF
:10026000704700000000000008ED00E0000000D032
:100270009814002064320220613900101903001024
:1002800021390010F8B5C04606480749091A8B10F5
:10029000C90FC91810B5491003D0044B002B00D06A
:1002A000984710BD9814002098140020000000000A
:1002B000054B10B5002B03D00449054800E000BFF2
:1002C000FFF7E2FF10BDC04600000000182C002020
:1002D00010D9001010B509F013FA10BD10B50100C7
:1002E000002009F0D9F910BD10B5FFF7F3FF012088
:1002F000FFF7F4FF074803F057FCFA24A40020009E
:1003000008F00CFC0020FFF7E9FF200008F006FCD5
:10031000EDE7C04610D9001000B585B003F040FCF1
:100320000023039380220A490A4803AB0193022366
:1003300000930023920008F099FA012805D006489E
:1003400003F032FC002005B000BD08F0EBFAF9E73D
:1003500034FB0010E902001020D9001030B507244A
:100360000440A400C008A14004003C34A400094D8E
:10037000615180001B18002A05D08022920194460A
:100380006344196030BDC0229201944663441960F1
:10039000F8E7C0460040014010B58300084A9A18AB
:1003A00014684022544080322240064CA4466344E4
:1003B0001A60C000044B9C466044416010BDC046BA
:1003C00004C0014004D001400040014080000C4BBB
:1003D0009C46604400290ED00823002A0DD0042238
:1003E0001343026853400C2213408022520194466A
:1003F0006044036070470023EFE70022F0E7C04647
:1004000004C00140002906D08000064B9C46604491
:100410000223036070478000034B9C466044022324
:100420000360F7E704E0014004F0014070B5060006
:100430000D00141E0BD1D0231B061B68002B11D0FE
:10044000094B220029003000FFF788FF70BD0D2006
:1004500000F028FA0028EED1044B054A0548BD21DA
:1004600003F062FA044BECE73041014034D900104C
:100470006C02011060D900100041014070B5D0231A
:100480001B061B68094C9D002C59204207D1074DC3
:100490009B0004435C510D2000F03EFA70BD044BFC
:1004A000044A0548DB2103F03FFAC046E42E002051
:1004B000A8D900103802011060D9001010B504004E
:1004C000D0231B061A680B4B9200D35818420BD04E
:1004D0000D2000F02DFBD0231B061B6805499B0057
:1004E0005A58A2435A5010BD034B044A0448EF2106
:1004F00003F01AFAE42E0020D4D9001014020110DF
:1005000060D9001010B501238340D02212069362F7
:1005100093610521FFF740FF10BD000010B5802357
:10052000DB05186803051B0D0B4A934207D10B4BE3
:10053000034080229201934207D1000F10BD084B67
:10054000084A0948132103F0EFF9084B054A064809
:10055000142103F0E9F9C0462709000000F0FF0F5D
:1005600000DA00108402011024DA00106CDA0010A6
:100570000FB400B583B0084803F016FB049B002BB2
:1005800007D005A90191180003F01EFB034803F0F2
:100590000BFB012003F0A6F980DA0010C8F7001069
:1005A00010B50148FFF7E4FF90DA0010EFF3108078
:1005B00072B6034B1B68002BFBD0BFF35F8F7047F5
:1005C0002C0100D0BFF35F8F024B00221A6080F332
:1005D000108870472C0100D0F8B506000C001500FB
:1005E000FFF7E4FFE308F718F15C0722224001233C
:1005F00093400B4205D1DBB20B433B70FFF7E2FFA8
:10060000F8BD21002800FFF7B3FFF0B583B0060066
:10061000019114001F00FFF7C9FF00E00134BC4244
:100620000CD8E308F518F35C0721214001228A4029
:100630001A42F3D1D2B21A432A7001E00124644273
:10064000FFF7C0FF002C02DB200003B0F0BD019BD0
:10065000002BF9D00898FFF78BFF000070B505005C
:100660000C00FFF7A3FFE308EE18EA5C0721214026
:1006700001238B40134204D09A433270FFF7A2FF4C
:1006800070BD034B034A0448332103F04DF9C046C3
:10069000A0DA001098020110C0DA0010054A1078A4
:1006A000431CDBB21370172B02D9130010221A70EF
:1006B0007047C046400E002010B50100024A034BAF
:1006C0001800FFF789FF10BD04DB0010B41E0020E6
:1006D00010B582B00100054C054B00931F23182272
:1006E0002000FFF792FF02B010BDC046B41E0020EC
:1006F00024DB0010002307E0054A9A189200BFF39C
:100700005F8F0021116001331F2BF5D97047C04660
:1007100040000034074B9B68103080001950BFF335
:100720005F8FBFF35F8F044B0021196082F3108845
:100730007047C04600ED00E0240100D0004870473B
:1007400000E400E010B5FFF7F9FF002302E0034AE0
:1007500004C00133072BFAD910BDC04680808080C9
:100760001F23181A7047000010B50388DA0A1C2AE4
:1007700005D15B055B1502335B00C01810BD034B50
:10078000034A8E210348490003F0CEF840DB0010F5
:10079000F402011058DB001010B5091A0B1F0A4AA9
:1007A00088180A4A904208D8C90706D45B105B052E
:1007B0005B0D0748184380B210BD064B064A8721DF
:1007C0000648490003F0B0F8FC070000FE0F0000E7
:1007D00000E0FFFF9CDB0010E802011058DB001076
:1007E00010B5091A04394A08090B08D14905490D01
:1007F000064B0B430380064B1343438010BD054B50
:10080000054A8B210548490003F08EF800F0FFFFF0
:1008100000F8FFFFCCDB0010C402011058DB001011
:1008200001238340034A10681840431E9841C0B218
:100830007047C04600E100E0002A05D0044BC0220A
:100840005200995019607047014A8023D150FAE74D
:1008500000E100E010B50A001F2303400121994088
:100860004009FFF7E9FF10BD01238340014A1360EF
:100870007047C04600E200E0024B9B6810308000E9
:10088000C058704700ED00E010B5FFF7F5FF044BCE
:10089000C31A00202F229A424041C0B210BDC04668
:1008A000440E002010B5FFF7E7FF002806D0044BE8
:1008B000984201D0012010BD0020FCE70020FAE79B
:1008C000C101001070B504000D00EFF3108672B680
:1008D0000C4B1B68002BFBD0BFF35F8F2000FFF792
:1008E000CBFF094B984201D0A84205D13200290024
:1008F0002000FFF70FFF70BD044B054A0548ED21AE
:1009000003F012F8240100D0C1010010DCDB00105C
:100910001C03011058DB0010F0B5DE4657464E466A
:100920004546E0B589B0814601911500EFF3108B83
:1009300072B66F4B1B68002BFBD0BFF35F8F6D4B04
:1009400000269E57002E40DB7400A419A4006A48BC
:1009500024180622A256674B1A70684B9A684B46B9
:1009600010339B00D35898461B1A2F2B3BD9644B4E
:10097000984531D105AF634B3B80634973009A467C
:10098000981980005C4B984640440230FFF704FF02
:1009900078805E4BBB80FF23BB71FD71019B079389
:1009A000330053449B00434407CF07C301231C4338
:1009B000A0465A4641464846FFF7ACFE09B0F0BC97
:1009C000BB46B246A946A046F0BD514B514ABE2196
:1009D0005148490002F0A8FF504B4E4A84214E482E
:1009E000FF3102F0A1FF012342469A439246101ABA
:1009F0000C2101F023FA00290FD153460027DA79A0
:100A0000AA4212D90621595600290DDB4A00521874
:100A1000920039491F008B18F1E7414B3D4ACA212A
:100A20003D48490002F080FF1F00002F2ED005AB8B
:100A30003C4A1A80813A5A800623FB560293002BC7
:100A400017DA394805AB9A469880029A9A71DD7197
:100A5000019A0792381D2100FFF79EFEB880BE71F3
:100A6000254B7200921992009B18524613CA13C369
:100A70009FE7381DFFF778FE0100700080198000A5
:100A80001D4BC0180430FFF787FEDBE705AF1D4B99
:100A90003B801D49730002939B199B00164A9046A8
:100AA0001A0042440392901CFFF776FE7880039A66
:100AB000101D5146FFF770FEB8801C4B5246414650
:100AC000521A524153431B0DBB71FD71019A07929B
:100AD000029B9B199B00434407CF07C3114B52460F
:100AE0001380813B538001231C43A04661E7C0462D
:100AF000240100D05C320220440E002000ED00E012
:100B0000C101001000A1FFFF740E002001BDFFFF16
:100B100014DC00100403011058DB00103CDC001052
:100B200064DC00100148000001BD0000AAAA00001A
:100B3000F0B5CE46474680B583B006000D00EFF312
:100B4000108872B64F4B1B68002BFBD0BFF35F8F32
:100B50004D4B9A6834001034A300D7584B4B9F423A
:100B600007D0AF4200D18AE00197494BFB1A2F2BE7
:100B700009D9424639003000FFF7CCFD03B0C0BCB4
:100B8000B946B046F0BD3000FFF74AFE814600216D
:100B90003000FFF75FFEBFF35F8FEFF305810029A1
:100BA00001D08C4211D10123019C9C430020A368F9
:100BB0009D4211D00622A256002A0CDB53009B183E
:100BC0009B00334A2000D418F1E7324B324A3348B5
:100BD000334902F0A9FE20009D4249D10625655700
:100BE000002D2BDB2A4B6A00521992009B189A6841
:100BF000A260DA79E2719B795BB2A371002B0FDA04
:100C00002848A080224B6A00521992009B18264A5D
:100C100011789971157049463000FFF71BFEA8E75F
:100C20006800401980001A4BC0180430FFF79CFD83
:100C30000100231D1800FFF7AFFDE2E7002912D1E4
:100C400000280ED0FF238371184B838016490B7840
:100C5000A3710F4A164BA41A644163431B0D0B701A
:100C6000D9E70A4FF2E71349201DFFF7B9FDD2E794
:100C7000114B094A91210948890002F055FE034FA2
:100C800077E7C046240100D000ED00E0C10100106C
:100C9000440E0020E8DC0010D402011058DB0010E4
:100CA0000202000001BD00005C32022001BDFFFF16
:100CB000AAAA00007E0E00201CDD001070B5050001
:100CC0000C00FFF73BFDAB089B00C2181168032323
:100CD0002B40DB00FF20984081439C402143116062
:100CE00070BD0000F8B5012202432C4BD31A2F2B04
:100CF00028D8EFF30583002B2AD0EFF3108472B6C7
:100D0000274909680029FBD0BFF35F8F234D254990
:100D10000600761B76417143090D4DB22249896860
:100D20009B00C958914219D00021032930D81B4B90
:100D30004A00521892009B189B795BB2AB421DD0BF
:100D40000131F2E7194B1A4A1A481B4902F0ECFD2F
:100D50001A4B174A17481A4902F0E6FD124A9268E0
:100D60001849D150184B1A7882711D70BFF35F8FEC
:100D70000B4B00221A6084F31088F8BD074B4A0021
:100D80005618B6009E19FF27B771104AB280E9E7DE
:100D90000F4B074A07480F4902F0C6FD440E0020DA
:100DA000240100D0AAAA000000ED00E024DD00101C
:100DB000A802011058DB00107F0200004CDD00107B
:100DC00082020000C10100105C32022001BDFFFF61
:100DD00058DD00109302000010B5FFF7C1FC0100C0
:100DE000024B1800FFF73AFC10BDC04660320220EB
:100DF00010B582B00100074C074B00930523002279
:100E00002000FFF702FC002801DB1F23181A02B0A4
:100E100010BDC0466032022060DD001070B50400D5
:100E20000E001500FFF73AFC0100200000F006F864
:100E3000A680E580BFF35F8F70BD0000024B9C462B
:100E400061448900016070474000003410B504001F
:100E5000FFF724FC01002000FFF7F0FF01235B42B5
:100E60006360BFF35F8F10BD10B50400FFF716FC81
:100E700001002000FFF7E2FF01235B4263600023D3
:100E80002372BFF35F8F10BD10B50D4C09E00D4B01
:100E90000D4A0E481A2102F047FD2000FFF7D6FF49
:100EA00008340B4B9C4209D22368002BF5D0012B50
:100EB000EDD12000FFF7D8FF0C34F2E710BDC0469B
:100EC000881400207CDD0010B00301109CDD0010B0
:100ED00098140020034B9C46614489000160BFF3D5
:100EE0005F8F70474000003410B504000120FFF709
:100EF000EFFB01002000FFF7EDFF10BD30B5846A65
:100F0000151B0B1D9B001B581B1B9D4204D3046A21
:100F100001238B40234202D1043189000A5030BDA5
:100F20000004084370470000F0B5DE4657464E46C1
:100F30004546E0B587B0EFF3058303221A40924699
:100F4000AE4B9200D7583B78534507D10123524608
:100F500093409946AA4B4A461A6025E1A94BAA4AF2
:100F6000AA48922102F0E0FC7A6973009B19DB0029
:100F70009046984443469C68DD68A54800F024FCF0
:100F8000001BA941002900DA16E1002D74DB43465D
:100F90001B699B469F4B9B454FD00823F85E4346F9
:100FA000598889B2FFF7BCFF43465969D847029078
:100FB00003910299039A0B00100013435CD01300B5
:100FC0000A00002847DAA41A9D410094019543467F
:100FD000009C019D9C60DD600021595E002900DAC3
:100FE000EAE078694B005B18DB00C3189A68DB689D
:100FF000A41A9D41002D00DADEE039813D0008355C
:10100000844604912A000597B346009E019F049BE5
:10101000002B2ADB0023D45E63001B19DB00634432
:101020009C68DD6830003900001BA94100291CDBE9
:101030001A000021595E0491E9E743465B699B462B
:101040001B6958469847002816D05B461A685B68AB
:1010500002920393ADE76E4800F0B6FB029B039C3F
:101060001B184C4100930194B1E70499059F5E461B
:101070004346198016809FE0434600229B5E3B81D9
:101080003A69EFF3108372B611680029FCD0BFF300
:101090005F8F02217A5E41460A807E803A69BFF303
:1010A0005F8F0021116083F3108885E03969EFF3C9
:1010B000108372B60A68002AFCD0BFF35F8FB8882D
:1010C00000B201225242BA803A69BFF35F8F002119
:1010D000116083F310880500BC461CE004930022D5
:1010E0009A5E002A0EDB049B0021595E4B005B18C0
:1010F000DB0063449868D96834003D00241A8D41B0
:10110000002DEBDA04995D46009B9C4644460D8019
:101110000023E55E2280002D12DB634658696C00D7
:101120006419E4000419A668E768614608310822DA
:101130009A5EAB46049163460093A0468446D0E78E
:1011400067463EE00023BB71390008310823F85E92
:101150000EE001246442E5179460D56008243B5FEB
:10116000834204D00E8008243B5F13803881300016
:10117000431C29D07C6943001B18DB00E218E65EA3
:1011800053881BB2002BE4DB1100F0E722002B0098
:1011900051461F48FFF7B2FE1D4800F015FB241A08
:1011A0008D41002D22DC1FD0194B4A465A6308237B
:1011B000FE5E002E00DBD7E6BB881BB2002B00DBF7
:1011C00074E7BB79002BBDD10823FA5E002A0DDB42
:1011D000796953009B18DB00CB189C68DD68631CA1
:1011E000D4D16B1CD8D0D1E7002CDDD040BF07B0E4
:1011F000F0BCBB46B246A946A046F0BD382C002044
:101200003C70054030DE0010F00301105CDE001081
:1012100000400540290F001070B504000D001100BA
:101220000126AE4006622800FFF74CFB0121280092
:10123000FFF710FB024B9C466444266070BDC0461D
:1012400038200000F8B5CE46474680B506008946EE
:1012500090461F00C160FFF721FA154B9C46604481
:101260008000306143463370BBB27381D0221206D6
:1012700012787270012252423281B2809B187380C0
:10128000002406E0621E736965002D19ED005A53B3
:101290000134BC42F6D3074B42469200D650064A70
:1012A00041464846FFF7B8FFC0BCB946B046F8BD56
:1012B00040000034382C0020290F001070B50500C4
:1012C0000C00160001238B400362084A8218136049
:1012D00001212000FFF7BEFA31002000FFF728FCB3
:1012E0002100280000F058FA70BDC04638300000D8
:1012F00010B5084B1A68EFF3108172B61368002B13
:10130000FCD0BFF35F8F034805F022FD00200021D1
:1013100010BDC046F830002010B5064B1B69002BED
:1013200001D0044810BD044B044A0548652102F071
:10133000FBFAC0468C0E00209CDE0010D803011082
:101340005CDE001070B505000E00182001F080F979
:10135000041E0ED01821300001F090F960610121C7
:10136000280000F021FA0200330029002000FFF7D6
:1013700069FF200070BD000010B50400134B9842B7
:1013800015D00178124AC068FFF798FF2378114AF8
:1013900099008A58A24211D10E4A9B00002199500F
:1013A000606901F083F9200001F080F910BD0A4B5B
:1013B0000A4A2E210A48FF3102F0B6FA094B074AC1
:1013C00099210748490002F0AFFAC0468C0E002070
:1013D000290F0010382C00201CDD0010C403011060
:1013E0005CDE0010C0DE0010F8B504000569EFF304
:1013F000108072B629680029FCD0BFF35F8F0221EC
:10140000665E656971008919C9006D18002E02DBDE
:101410000027E95F61802169BFF35F8F00270F60BC
:1014200080F31088002E2CDB0699296107996961E9
:10143000AA60EB606B8801335B04590C002B00D170
:10144000012169803000FFF76BFD2169EFF3108304
:1014500072B60A68002AFCD0BFF35F8FA2882A8088
:10146000A6802269BFF35F8F0021116083F310888B
:10147000E368217801228A4003498C4663441A605C
:10148000F8BD01204042FBE73C20000070B582B06F
:10149000060014001D0008AB1B78002B07D100F0DC
:1014A000A9F922002B00121A8B41002B0ADB079BA3
:1014B0000193069B009322002B003000FFF794FF5E
:1014C00002B070BD0020FBE7F0B5C64600B584B0A1
:1014D0000500884616001F000AAB1C78FFF71CFFAA
:1014E0000294019700962A004346FFF7CFFF04B00D
:1014F00080BCB846F0BD000030B504000A14438932
:101500009A422EDA406953009B18DB00C318256904
:10151000EFF3108272B628680028FCD0BFF35F8F0B
:10152000588885B20904090C884212D0002023692A
:10153000BFF35F8F0021196082F31088002811D05B
:10154000E368217801228A4007498C4663441A6087
:1015500008E00649294389B259800123A37101207B
:10156000E5E7002030BDC0463C2000000080FFFFC2
:1015700010B50400FFF7D0FE2100FFF7BDFF10BD3E
:1015800040787047F0B583B006000F00EFF3058395
:10159000002B1AD196246442E517A4197D418D428F
:1015A00002D803D1844201D90024002500F022F999
:1015B00022002B00121A8B41002B0BDC08D03000CC
:1015C000390000F01FF903B0F0BD1348FEF7D0FF5B
:1015D000002AF4D0114A0023009320002900FFF7CD
:1015E00073FF00280DDAEAE70D4B1A68EFF310815C
:1015F00072B61368002BFCD0BFF35F8F084805F06C
:1016000055FB084B5B6A9D42EED80649896AA142A8
:10161000D5D29D42D3D1E7E700DF0010F1120010D0
:10162000F830002000400540F0B5CE46474680B572
:1016300083B005000C00EFF30583002B15D03F4B62
:101640005B6A8B4209D33D4A926A82420BD28B423B
:1016500001D0012002E0002000E0002003B0C0BC67
:10166000B946B046F0BD0120F8E7FFF755FEC36864
:101670009946037898462E002700484600F0A4F8C3
:1016800002000B00B61A9F41434604339B004A46B2
:101690009B581B1A0022BA420FDC0CD020BF274BEC
:1016A0005B6A9C422DD8254A926AAA422BD29C4260
:1016B00025D00120D2E7B342F0D9214A002300937C
:1016C00028002100FFF700FF00281EDD1B4B5B6A8E
:1016D0009C4205D8194A926AAA4202D29C4200D181
:1016E00020BFFFF745FF154B5B6A9C4221D8134A88
:1016F000926AAA421FD29C4219D00120AEE7002074
:10170000ACE70020AAE70120A8E70C4B5B6A9C42EB
:1017100009D80A4A926AAA4207D29C4201D0012003
:101720009CE700209AE7002098E7012096E7002038
:1017300094E7002092E7012090E7C0460040054072
:10174000F1120010004870470040054010B50B4BE7
:101750001B69002B04D00A480A21FFF76FFB10BD5C
:10176000FFF7F0FF0400032100F00CF803481023FA
:1017700003222100FFF766FDEDE7C0468C0E002036
:10178000F830002010B5024A0248FEF725FF10BDD0
:1017900050DF0010B81E002010B50248FEF75EFFB3
:1017A00010BDC046B81E002000B583B00448054BEC
:1017B000009303230022FEF728FF03B000BDC046BC
:1017C000B81E002074DF00100200436A906A1900FE
:1017D000536A9942FAD17047416A00E0416A9942DE
:1017E000FCD300E0416A994202D1816A9142F9D367
:1017F0007047000010B50248FFF7E6FF10BDC04675
:101800000040054010B502000B000248FFF7E4FF5E
:1018100010BDC04600400540F8B5D646474680B5E5
:1018200006000D001700984644002418A400294B18
:101830009C4664446368089A934200D26260331FF6
:10184000DBB29A46012B2ED980221201C0239B01C4
:10185000E3181A60204BB200D158002907D058690C
:1018600000F0ECFA013043001B18033BFDD27F016E
:1018700023685F40E0233B4080225201A21813609E
:101880005346012B1AD980239B01E31880221201B1
:101890001A60089B6360104BB6004246F250C0BC11
:1018A000BA46B046F8BD012DCED10322C0239B011C
:1018B000E3181A60A368DB07FCD5D8E72168694004
:1018C00003230B401360A3680122AA401A42FAD0F6
:1018D000D9E7C04600800040C01E0020F0B583B0AC
:1018E00005000E0017001800089900F0A7FA030081
:1018F000089A140200943A0031002800FFF78CFF88
:1019000003B0F0BD10B582B0802464000094FFF7EE
:1019100083FF02B010BD0000014B8000C05870472B
:10192000C01E0020F0B5C64600B504000E0017002A
:101930001D00374800F082FA8046364BFA18364BC5
:101940009A4239D80100380000F078FA0200103AC3
:1019500098235B009A4235D86B1E062B38D8069B1D
:10196000013B062B34D83F09474537D32D04069B4E
:101970001B031D432368002B36DB284B9C4244D0BD
:101980000C2201239340264A1360264A1360264AFC
:101990001268190091430A1EF9D12660A060234BFA
:1019A000E31821321A602268002AFCDAE560082276
:1019B0001A6080BCB846F0BD1D4B1E4A1E4811215E
:1019C00001F0B2FF1D4B1B4A1B48192101F0ACFF6F
:1019D0001B4B184A18481C2101F0A6FF194B154A49
:1019E0001548232101F0A0FF22683F231340B34292
:1019F000C3D1A3681B051B0D8342BED1E368EE2251
:101A0000D2021340AB42B8D1D3E70D22B9E7C046AA
:101A1000001BB70080E84BD380F8A93200C0024019
:101A200000E0004000F0004008C00040043000002A
:101A300088DF001010040110D8DF00101CE0001037
:101A400038E0001084E00010024B1A68024B5A6024
:101A50007047C0460C2C00200080054010B5174B85
:101A60008022D2051A60164B164A1A6000290AD045
:101A7000154BE022D2041A60002809D1124B8022B3
:101A800012061A6010BD0D4BE022D2041A60F3E773
:101A900043011B1A9B00181800010C4B186080238F
:101AA0005B04984202D3094B094A1A60FFF7CCFF46
:101AB000054B8022D2051A60E4E7C04600B005401D
:101AC00008200140FCFF010000A005400C2C002074
:101AD000FFFFFF0010B5030010000C4A8024E4054E
:101AE0001460002B0DD001221343094A094CD46124
:101AF000094C5C401462516293620021FFF7AEFF13
:101B000010BD034B0022DA61F7E7C04600B0054084
:101B100000800540D3C007B02D3FF84F80239B00C5
:101B20000B43014AD36270470080054010B50100A5
:101B300018231B8814221088984710BD10B5010087
:101B400018231B8816221088984710BDF0B5C6468A
:101B500000B507000E0000250123984600E001357E
:101B6000B5420AD2AC003C192068FFF7DFFF2060C5
:101B70000028F4D100239846F1E7404680BCB846DF
:101B8000F0BD000070B504000D000648FFF7CEFF61
:101B90000300002C03DB0120A0402900984700200F
:101BA000FBE7C04655420000074BAA2212011A600B
:101BB0008D225200DA60054B054A1A60024B5B68C1
:101BC000002BFBDA7047C046004002400060024034
:101BD00000B0FA0010B5040001E008CC9847024BB1
:101BE0009C42FAD310BDC04604D9001070470000D3
:101BF00010B50248FFF7EEFF10BDC046C8D8001070
:101C000010B50248FFF7E6FF10BDC046FCD8001033
:101C1000054B064A1A60064B064A1A60064B1A68BC
:101C2000044B9343FAD1704700E00040BFCDFBFE68
:101C300000F00040FE7F3C0008C00040044BDB6C1D
:101C4000002B03D1034B8022D2021A607047C0469A
:101C5000000011504C201150044B054A1A60054BEE
:101C60001B68DB43DB01FAD17047C04600F000403F
:101C7000FFFFFF0108C00040034B40229A675A67EC
:101C80001A67DA667047C04600F0014010B5FEF7EB
:101C900031FD10BD10B50C4A0C4BD21A9210140035
:101CA000302A00D9302292000948084900F01CFD72
:101CB00004E0084A064BA100CA5001342F2CF8D981
:101CC000034B054A936010BDC001001000010010D5
:101CD00000000020C101001000ED00E070B50420FC
:101CE000FFF71AFE064900F0A9F805000024002CB1
:101CF00000DD70BDE0B22900FFF710FF0134F6E708
:101D000040420F0030B583B0274B00229A67FFF79F
:101D10004BFF264B01221A60234B5B6C012BFBD13E
:101D2000234B03221A60204B9B6B012BFBD1013309
:101D3000009304331F4A01211F48FFF7F3FD0523D9
:101D400000931E4A01211E48FFF7ECFD1D4B0022A7
:101D500002210420FFF7D6FD1B4D2B00002201219C
:101D60000520FFF7CFFD194C23000022002107209A
:101D7000FFF7C8FD2300002200210820FFF7C2FD65
:101D80008023DB0000932300002200210920FFF7BD
:101D9000A5FD2B00002200210620FFF7B3FDFFF771
:101DA0009DFF03B030BDC046008000403CB0004005
:101DB00030B00040002F685900800240008C8647F8
:101DC00000C00240001BB70040597307006CDC02E2
:101DD00001480421014B1847B00E00204D1B001094
:101DE000014B9B6818470000B00E0020124A936F09
:101DF0009B0815D29066D166002905D0FFE7FFE762
:101E0000FFE7516F106F704704B580210906C217B4
:101E10005140002800D0C8430BF0E6FC002104BD6F
:101E2000F0B5146E556E576F166FFFF7E3FF14662B
:101E3000556657671667F0BD000000D0114A936FD2
:101E40009B0813D210665166002905D0FFE7FFE713
:101E5000FFE7516F106F704704B5002801D00020D4
:101E6000C0430BF0C1FC002104BDC046F0B5146EA8
:101E7000556E576F166FFFF7E5FF14665566576787
:101E80001667F0BD000000D094464A4A926F92084F
:101E9000624601D228E0C046F0B5464E346E756EFB
:101EA000776F366F00F020F89446424A1466556604
:101EB000576716676246F0BD94463E4A926F920895
:101EC000624601D254E0C046F0B53A4E346E756EAB
:101ED000776F366F00F04CF89446364A14665566B4
:101EE000576716676246F0BD002B24DB11D000292E
:101EF0003EDA00B5C943404200D1013100F038F864
:101F0000C943404200D10131DB43524200D1013389
:101F100000BD002AEBD1002801D1002905D0002006
:101F2000C90FC90701D1C043410800B50BF044FCFB
:101F30000022002300BD00B500290ADBDB4352422A
:101F400000D1013300F014F8C943404200D10131FF
:101F500000BDC943404200D10131DB43524200D1B0
:101F6000013300F005F8DB43524200D1013300BDDC
:101F7000002923D1002B18D1002A0CD0BC460D4FCC
:101F800038667A6600210023FFE7FFE7FFE77A6FF4
:101F9000386F67467047002801D00748010000B538
:101FA0000BF00AFC0022002300BD02000B00002001
:101FB00000217047000000D0FFFFFFFF002B00D082
:101FC000BFE0130C28D1002AE7D080B4114F396646
:101FD0007A66FFE7FFE730B4040C7B6F396F1B04B0
:101FE00023433B667A66FFE7FFE7FFE7C04684B21C
:101FF0007B6F3D6F1B0423433B667A66FFE7FFE779
:10200000C04600232C042D0C7A6F386F00196941EB
:10201000B0BC7047000000D0F0B594460025140E07
:1020200001D112020835140F01D112010435940FA9
:1020300001D192000235D40F01D152000135D40BE9
:102040000134254F7C66254C3C660E0C93B2FFE7AD
:10205000FFE7FFE73C6F6643360C7703BE467343EA
:10206000DF0B5B04C01AB941130C7343DB18C91AA8
:10207000CE086643360CB64493B273431F0F1B0160
:10208000C01AB941130C73431F0B1B05C01AB94189
:10209000860D8F023E436643360C092D24DB520A1F
:1020A0007243801A7703460A6643360C16235B1B7D
:1020B000DE40DF40BF1964466643821B704604352C
:1020C00006330100D940A840C01900D30131A24213
:1020D00006D20023F0BD0000000000D0FFFFFFFF8C
:1020E000121B0130F3D3F1E709277F1BFE40644642
:1020F000A2B27243801A00D20139220C7243130C2F
:102100001204821A99410B007046043513370100FE
:10211000F940A840801900D30131002B02D1A2421E
:102120000AD2F0BD013000D30131121BFAD2013BBB
:10213000F8D1A24200D2F0BD013000D30131121B10
:10214000F7E7F0B51C0C00D080E00CB400251C0AA9
:1021500004D11B02160E3343120208351C0B04D1A6
:102160001B01160F3343120104359C0B04D19B0055
:10217000960F334392000235DC0B02D192185B417B
:1021800001351C00971864410134464F7C66464C6B
:102190003C660E0CFFE7FFE7FFE7C0463C6F664377
:1021A000360C7703BE4697B27743C01B00D2013985
:1021B000C01B00D201399FB27743C91BC91B170C42
:1021C00077437E04FF0B801BB941CE086643360C73
:1021D0000C2D33DBB644120B1F053A431B0B97B291
:1021E0007743C01B00D201399FB27743C91B170C3C
:1021F00077433E043F0C801BB941860D8F023E435E
:10220000664329277F1BFE400C3D7746AF40BF1930
:1022100030BCA2B2ABB272437343801A9941220C14
:102220007243130C1204801A994102000B0001370B
:10223000001BA941F9D2781E0021F0BD0C277F1B9D
:10224000FE4077467F0BAF40FF19E0E700245D1C9E
:1022500007D0144F7D663966FFE7FFE7FFE7FFE72A
:102260003C6F95B29EB265436643401BB141150C6D
:102270001E0C6543664336042F0C3E432D04401B61
:10228000B141994204D202000B0020000021F0BDB0
:1022900001D19042F7D3801A994101349942F2D387
:1022A000F6E70000000000D0FFFFFFFF484041407C
:1022B000484018B4134B5B68019308BD18B4114B28
:1022C0001B68019308BD94460F4A926F920805D28D
:1022D000624618B40B4BDB68019308BD0A4AF0B59F
:1022E000146E556E576F166F6246FFF7F2FF064A7F
:1022F0001466556657671667F0BD18B4014B9B68A6
:10230000019308BDF42E0020000000D0FFB550401E
:102310004240504059404B40594000E0FFB5154FF6
:102320004C00640D03D0BC4204D10C0314D800202F
:10233000090D09055C00640D03D0BC4204D11C03E7
:102340000AD800221B0D1B0501264B4009D44B4027
:1023500003D58B4200D18242FFBD9942FCD190420D
:10236000FFBD0B43DB1803431343F5D0C9434918A2
:10237000FFBD0000FF07000000B5FFF7CFFF804161
:1023800000BDC04600B5FFF7C9FF01D9002000BD60
:10239000012000BD00B5FFF7B9FF01D9002000BD45
:1023A000012000BD00B5FFF7B1FF804100BD012055
:1023B00040054A00121804D85A00121801D800200B
:1023C00070470120704700000021002805D17047A8
:1023D000C1174840401AFAD0C90713B5064B1B680D
:1023E00098470CBC441CA2401005120B0349091B62
:1023F00009051943114310BDF42F00201F040000EC
:1024000010B54C00620D8023D218DB00D21A5B0598
:102410007E2A10DD9E3A13DACC17090349081943C6
:102420005242D140640001341532202A05DAD040EE
:102430000843604310BD002010BD0846604310BD36
:10244000C80FC018013810BD18B4024B5B6A019365
:1024500008BD0000F42E002010B50148FEF788F8F2
:10246000A0E0001070B513231C78012C12D0012CB1
:1024700012DC214B214A93642148FFF757FB214B83
:10248000186070BD20491D4A9800815001331F2BF0
:10249000F8D9ECE70023FAE71C48FFF74FFB0500EB
:1024A0001B48FFF74BFB023803789B007F2B09DDAD
:1024B00012488022290000F017F9022C08D0022CC3
:1024C000DADCD6E7134B144A1448332101F02CFA16
:1024D000134B1A88B5231B029A4209D1114B1A8853
:1024E000114B9A4204D1114B1A88114B9A42E6D0F3
:1024F0000020FEF73DF8C04635250010F42E0020E0
:102500004C330000F42F00205924001053440000E5
:1025100053460000B8E000101C040110FCE000105D
:1025200054380000D8380000494600009C380000AC
:102530005946000007B56046002800D100BE01885A
:102540000A0A0230DF2AFAD1C9B2820804D302880B
:1025500040880004104300E00068024A5050039095
:1025600007BD0000F42E002051434343C9188C4698
:10257000110C83B24B4310B4040C614392B280B28D
:10258000504362431C041B0C001910BC5941130436
:10259000120CC018514161447047000010B5014849
:1025A000FDF7E6FF88FA001070B513231E7818486F
:1025B000FFF7C4FA0500012E11D0012E09DDAB1E74
:1025C0001B789B007F2B1DDD12488022290000F024
:1025D0008BF81148FFF7AAFA104B186070BD0D4830
:1025E0005422290000F080F8002300E001331F2B63
:1025F000E3D8084A9C00A258002AF7D10849054AA6
:10260000A150F3E7074B084A0848422101F08CF932
:1026100053460000F82F00204C330000F42F002018
:102620009D25001054E100103004011088E10010D5
:1026300010B5002804D04018034B984200D810BDB4
:102640000248FDF795FFC04600000420DCE10010C1
:1026500070B50500084E30000BF026F928000AF08E
:1026600023FB040030000BF09FF829002000FFF747
:10267000DFFF200070BDC04688140020F8B50600BA
:102680000C00094F38000BF00FF9210030000AF060
:10269000ABFA050038000BF087F8210071432800E1
:1026A000FFF7C6FF2800F8BD8814002070B50400AD
:1026B000054D28000BF0F8F820000AF0FFFA28007A
:1026C0000BF072F870BDC046881400200148042148
:1026D000014B1847C00E00204D1B0010014B1B681A
:1026E00018470000C00E0020014B5B68184700002F
:1026F000C00E0020704710B5002802D00B68496852
:10270000984710BD0100002007E083001B185B0004
:10271000501C08601078C01830380A681378303BB5
:10272000DBB2092BF1D97047F0B5DE4657464E466D
:102730004546E0B583B093461F000C9B9A460D9C1E
:102740000E9B99460F9B9B0717D0B8460F000600BB
:1027500022E0551C4B4641462020B84701342A0050
:10276000B442F6D33D004F465C46019B9B46B146C2
:102770004646B84637002E000EE00192A346884632
:102780004E46B9460700EBE7013C551C5346185D21
:1027900043463900B0472A00002CF5D135003E00F1
:1027A00047460F9B9B0711D4100003B0F0BCBB46FB
:1027B000B246A946A046F0BD541C4B4641462020D7
:1027C000B8472200531BB342F6D3EDE7B0464E465E
:1027D000B9462F005D46F5E7F0B5CE46474680B5D1
:1027E00085B0944698460C9D0D9C0EAB1B7899467F
:1027F000109A119B129EB7071CD4002B0CD0F70720
:102800000AD54F46002F02D10C37374204D0013B86
:1028100002E030272F550134944201D21F2CF8D901
:10282000F70707D59C4205D21F2C03D830272F5518
:102830000134F5E7F70612D5770505D4002C03D04F
:10284000944221D09C421FD00F9A102A2FD00F9A69
:10285000022A36D01F2C0AD830222A5501341F2CC8
:1028600005D84A46002A32D02D222A550134039633
:1028700002930194009543466246FFF755FF05B069
:10288000C0BCB946B046F0BD621E012C17D00F9FE8
:10289000102F0BD014000F9A102AD8D1B206D6D51B
:1028A0001F2CD4D858222A550134D3E7023CB20653
:1028B000F1D41F2CEFD878222A550134CAE714002E
:1028C000C2E71F2CD3D860322A550134C2E7720701
:1028D00003D52B222A550134C9E73207C7D5202258
:1028E0002A550134C3E7F0B5DE4657464E46454605
:1028F000E0B593B081468A46089209931CAB10CB91
:102900001B789B461E9D219B9846002C03D11023CB
:1029100042469A4390468023DB0046461E4042468C
:102920001A4218D0002C22D0002614E0424692060B
:102930001BD54121C918C9B20A39C9B2771C0AABE3
:10294000995529002000FFF779FAAC4210D31F2FC8
:102950000ED83E00040029002000FFF76FFACBB22A
:10296000092BE3D83033D9B2E8E76121E2E7270049
:1029700043460693209B05931F9B049303955B4658
:10298000029301970AAB0093099B089A5146484667
:10299000FFF722FF13B0F0BCBB46B246A946A046E3
:1029A000F0BDF0B5DE4657464E464546E0B597B019
:1029B0000A900B910C929A46209B9946219F22AA3D
:1029C00013789B46249B0993259C289B98464A464E
:1029D0003A4302D11032934398468022D2004546B2
:1029E0001540434613420AD04A463A4341D0002597
:1029F0002E0053460D934D46099B9A4621E02E002A
:102A000053460D934D46099B9A461AE0424692065C
:102A100023D54122D218D2B20A3AD2B2731C9946B7
:102A20000EAB9A555246230028003900FFF744FAAE
:102A3000BC4220D813D04B461F2B16D84E4605005B
:102A40000F005246230028003900FFF735FAD3B2B1
:102A5000092BDBD83033DAB2E0E76122DAE7AA45A6
:102A6000E9D94E460D9B9A4608E04E460D9B9A4684
:102A700004E0002602E04E460D9B9A46434606932C
:102A8000279B0593269B0493099B03935B46029324
:102A900001960EAB009353460C9A0B990A98FFF7D8
:102AA0009BFE17B0F0BCBB46B246A946A046F0BD9F
:102AB000F0B5DE4657464E464546E0B591B08046F5
:102AC00089460C929A461A9C1B9D22002B002000DE
:102AD0002900FFF76CFC002800D0F2E001225242EE
:102AE000D54B20002900FFF75DFC002800D0E8E06E
:102AF00001225242D14B20002900FFF73DFC002863
:102B000000D0DEE00022002320002900FFF734FC83
:102B1000002800D0EAE0069407958023DB001E9A87
:102B20001A400D921E9A1A4201D106231C93069850
:102B3000079902000B000892099303000A00024360
:102B400000D1DFE0080D4005400DBD4EB4466044A5
:102B5000079E3203120B1E00BA4B13431F00FFF7F0
:102B600037FCB94AB94BFFF7C8FBB94AB94BFFF775
:102B7000A5FB089009910022B74B30003900FFF700
:102B800098FBB64AB64BFFF7B8FB02000B0008985B
:102B90000999FFF793FBFFF733FC8346FFF718FC17
:102BA00006000F00AF4AB04BFFF7A7FB0022AF4B68
:102BB000FFF784FBFFF724FC0890AD4AAD4B3000D3
:102BC0003900FFF79AFB06000F000898FFF700FC9A
:102BD000A94AAA4BFFF791FB02000B003000390015
:102BE000FFF767FB06000F0002000B00FFF785FBF5
:102BF0000A900B91089BA24A94466344002100224C
:102C0000089109921B0509930023089332003B00A9
:102C100030003900FFF752FB0E900F9132003B005D
:102C200000208021C905FFF744FB06000F000022A9
:102C3000944B0A980B99FFF746FB0022924BFFF743
:102C40003DFB02000B000A980B99FFF73CFB0022AA
:102C50008E4BFFF733FB02000B000A980B99FFF72E
:102C600032FB02000B0030003900FFF727FB0200A7
:102C70000B000E980F99FFF726FB0022714BFFF710
:102C80001DFB089A099BFFF738FB06000F0008960A
:102C90000997069A079BFFF785FB00280BD00123B5
:102CA0005B429C46E3440022774B30003900FFF73B
:102CB0000AFB089009915B466333C62B45D804266E
:102CC00023E01E9B04931D9B03931C9B0293009483
:102CD000019553460C9A4946404600F0FBF811B066
:102CE000F0BCBB46B246A946A046F0BD002100227A
:102CF00006910792069480231B069C46AC446346CB
:102D000007930AE700239B4604261E9B1B0528D534
:102D1000089A099B190011430FD05D4A5D4B069834
:102D20000799FFF737FB00287AD000225A4B069804
:102D30000799FFF721FB002872D01C9B5B4506DD3D
:102D40005A469B1A013B1C9303E00526DDE700234E
:102D50001C938023DB001E9A1A431E920026002338
:102D60009B461D9B9E4265D29F1B02231E9A1A40C2
:102D70000A921E9A134202D0002E00D000275B4612
:102D8000002B07D0089A099B06980799FFF79BFA32
:102D9000069007910022002320002900FFF7ECFA9B
:102DA000002800D07CE03D4B1E9A1340049303970B
:102DB0001C9B0293069B079C0093019453460C9A1C
:102DC0004946404600F086F8002E00D187E71E9B5A
:102DD0009B0671D54525441C5346020049462800F0
:102DE000C0475A46D317D2185A4005230593013ECF
:102DF0000496002303930A3302935B46DB0F01938F
:102E000000925346220049464046FFF76CFD0A9B5C
:102E1000002B00D163E7020047460C9E1D9D53E046
:102E20001C9B002B9DD00D9B002B9AD01C9B013B23
:102E30001C9396E7002798E7FFFFEF7FFFFFEFFF68
:102E400001FCFFFF0000F03FFB799F501344D33F8C
:102E5000B3C8608B288AC63F0000F83F61436F63A8
:102E6000A787D23F71A379094F930A400000E03F42
:102E70001655B5BBB16B0240EF39FAFE422EE63F64
:102E8000FF03000000002C40000024400000184018
:102E90002D431CEBE2361A3F80842E41FFF7FFFFE3
:102EA000069C079D2200290080200006844661447C
:102EB0000B000692079376E765258CE7541C534672
:102EC00049462020B8472200931BAB42F6D310009E
:102ED00005E7C046F0B5DE4657464E464546E0B5E6
:102EE00095B00690079193469946209F1E9A1F9B86
:102EF00010001900FFF75BFA002831D1012252427D
:102F0000BC4B1E981F99FFF737FA002837D10122D2
:102F10005242B94B1E981F99FFF744FA00283DD141
:102F20000022B64B1E981F99FFF73CFA00284AD1A1
:102F30000022B34B1E981F99FFF71EFA002842D1BA
:102F4000002200231E981F99FFF716FA00284AD185
:102F500000239846229B5B0500D4B0E0002452E099
:102F6000229B0393219B029303230193A54B009380
:102F70004B465A4607990698FFF7D6FB08E1229B75
:102F80000393219B0293042301939F4B00934B4691
:102F90005A4607990698FFF7C7FBF9E0229B5B07A3
:102FA0000ED59A4B04222299039121990291019204
:102FB00000934B465A4607990698FFF7B5FBE7E0A2
:102FC000934B0322EFE7229B0493219B03930297E9
:102FD0001E9B1F9C009301944B465A4607990698E6
:102FE000FFF766FDD4E01E9A1F9B00200021FFF72B
:102FF00060F91E901F9101239846ABE70CAB30227D
:103000001A55013F01341F2C01D8092FF6D81E98FC
:103010001F99FFF7F5F90500FFF7DAF902000B0039
:103020001E981F99FFF745F97A4BFA009B181A680A
:103030005B680A920B93FFF760F908900991FFF71C
:1030400003FA0600FFF7C0F902000B00089809997F
:10305000FFF72FF90890099100226F4BFFF7A2F9B3
:1030600000282ED001363000FFF7AEF902000B0029
:103070000A980B99FFF786F9002801D00135002640
:10308000002F2CD12800FFF7A3F902000B001E9897
:103090001F99FFF70EF906000F0000225E4BFFF7A5
:1030A0006BF9002846D100225B4B30003900FFF756
:1030B00079F900283ED1EB073CD501353AE00627E7
:1030C0004CE70022544B08980999FFF755F900285E
:1030D000D6D1002E01D0F307D2D50136D0E7AA46CB
:1030E0001F2C11D8013F0A213000FEF7A7FE651CF6
:1030F00030310CAB19550A213000FEF79FFE092E26
:103100000ED906002C00EBE755461F2C0CD87B1E71
:10311000002F09D00CAA302111551F000134F4E70B
:103120002B0055461C00F0E71F2C03D80CAB2E22B9
:103130001A5501341F2C10D80A212800FEF756FE1C
:10314000661C30310CAB19550A212800FEF74EFEE3
:10315000051E01D03400EDE734000323229A13400A
:10316000012B1CD01F2C06D84346002B32D00CABB1
:103170002D221A550134229B0393219B0293019423
:103180000CAB00934B465A4607990698FFF7CCFACA
:1031900015B0F0BCBB46B246A946A046F0BD219B87
:1031A000002B13D04346002B02D10C3313420FD017
:1031B000219B013B2193190003E00CAB30221A55EF
:1031C00001348C42CED21F2CF7D9CBE72199F8E7F6
:1031D0002199F6E7229B5B0704D50CAB2B221A55ED
:1031E0000134C8E7229B1B07C5D50CAB20221A551A
:1031F0000134C0E7FFFFEFFFFFFFEF7F65CDCD415B
:1032000065CDCDC144E2001048E2001038E2001064
:1032100040E20010380601100000E03FF0B5DE4645
:1032200057464E464546E0B593B007008A4693465A
:103230001193002900D12CE3002508E06C1C5B46AB
:103240002A005146B847119B013311932500119B69
:103250001878002800D11EE32528EFD101331193FF
:103260000023180020E001231843013211920124A9
:1032700018E00223184301321192012412E00423C2
:1032800018430132119201240CE008231843013243
:103290001192012406E010231843013211920124F7
:1032A00000E00024002C09D0119A1378203BD9B2F9
:1032B0001029F6D88B00C449CB589F468146119BF4
:1032C0001A781300303BDBB2092B10D92A2A13D00D
:1032D0000B94119B1A782E2A20D0119A1378683BF0
:1032E000D9B2122965D88B00B849CB589F4611A88E
:1032F000FFF708FA0B90ECE71C9B1A1D1C921B6849
:10330000002B04DB0B93119B01331193E1E70222A5
:103310000100114389465B420B93F4E78022D200FF
:103320004946114389465A1C11925A781300303B82
:10333000DBB2092B0BD92A2ACFD11C9B1A1D1C9258
:103340001C68002C08DB119B01331193C5E711A801
:10335000FFF7D8F90400C0E70024F4E780235B00FE
:1033600049460B43511C119151786C2901D0994663
:103370001FE0C0239B00494619438946023211923F
:1033800017E0802349460B43511C1191517868295D
:1033900001D099460DE0C0234946194389460232BF
:1033A000119206E080235B004946194389460132A9
:1033B0001192119B187867281CD8252800D25EE24C
:1033C0000300253BDAB2422A00D958E29300804A32
:1033D000D3589F4680239B004946194389460132B2
:1033E0001192E6E780235B00494619438946013282
:1033F0001192DEE7782800D941E2692800D23EE246
:103400000200693AD2B201239340724A134210D1AA
:103410001A0600D50CE25B0500D430E21C9B1A1D95
:103420001C921E68002C00D0BAE1012252423300E7
:1034300096E16F2842D005D8582841D0622803D1A0
:10344000022606E078283DD010234A469A4391464A
:103450000A26582838D0692805D0642803D00C22C1
:103460004B46934399464B465A0502D50122934356
:10347000994669282DD064282BD04B469A0500D553
:10348000AAE0DA0500D5C2E05A0600D4D3E01C9ABF
:10349000111D1C911168FF220A404B4605930B9B9E
:1034A0000493039402960023019300925B462A0042
:1034B00051463800FFF717FA05002AE00826C8E74A
:1034C0001026C6E71026C4E720224B461343994630
:1034D000C1E74B469A0520D4DA0551D45A0666D581
:1034E0001C9A111D1C911168FF220A40D017111857
:1034F00041404B4605930B9B049303940296D20FD5
:10350000019200915B462A0051463800FFF7EBF923
:103510000500119B0133119399E61C9A073207218C
:103520008A43110008311C91116853689C46DB17CF
:103530000C930D930C9A0D9B100048400E900D9B20
:1035400061464B400F930E980F990C9A0D9B801A71
:1035500099410E900F914B4608930B9B079306944D
:103560000496002305936346DA0F029200900191BE
:103570005B462A0051463800FFF713FA0500C8E7FA
:103580001C9A111D1C911268D01711184140059307
:103590000B9B049303940296D20F019200915B4619
:1035A0002A0051463800FFF79EF90500B1E71A06D8
:1035B00005D51C9A111D1C910023D25E96E71C9A1A
:1035C000111D1C91126891E798040110DC04011090
:1035D00028050110419000001C9A073207218A43F8
:1035E000110008311C9108930B9B079306940496D5
:1035F00000230593029353681268009201935B467F
:103600002A0051463800FFF7CCF9050081E71C9AE3
:10361000111D1C9105930B9B0493039402960023A8
:103620000193136800935B462A0051463800FFF768
:103630005AF905006DE71A0606D51C9A111D1C9152
:1036400012681204120C28E71C9A111D1C911268B2
:1036500023E746281AD01C9B0733072293431A00FE
:1036600008321C924A4604920B9A039202941A68FA
:103670005B68009201935B462A0051463800FFF7D1
:1036800029FC0500119B01331193E0E520234A46F4
:103690001A439146DFE7672801D0472804D18023E9
:1036A0001B014A461A439146452801D0472803D1B9
:1036B00020234A461A4391461C9B07330722934313
:1036C0001A0008321C924A4604920B9A0392029402
:1036D0001A685B68009201935B462A0051463800E5
:1036E000FFF7E6F90500119B01331193AFE50223C3
:1036F0004E461E404A4613421ED001241C9B1A1DF2
:103700001C926A1C904618785B462A005146B847BE
:10371000002E14D1119B01331193454697E5551C9A
:103720005B4651462020B84723002A005C1C0B99B9
:103730009942F4D81500E1E701232A00F6E7424652
:1037400006E0561C5B4651462020B8472C0032004C
:10375000651C0B9BA342F4D89046DBE701330A00BB
:103760001978002902D0511E002AF7D19B1B802214
:10377000D2004946114088464946114202D0A34230
:1037800000D92300022249461140109149460A42BD
:1037900008D02A00250099463B004746984626E077
:1037A000220044E6A1462A005146B2460E0006E039
:1037B000551C5B4631002020B84723002A005C1CC2
:1037C0000B999942F4D8150022004C463300564616
:1037D0009A4691462A0025003B004746984606E057
:1037E0001D000136541C5B465146C047220030780C
:1037F000002804D0002FF4D06B1E002DF0D115004E
:103800004B464746109A002A03D1119B013311936E
:103810001DE50B9E2A0006E0551C5B465146202004
:10382000B84723002A005C1C9E42F5D81500ECE73F
:1038300021234A461A4313001C9A111D1C91126839
:103840000593082304930394083302930023019300
:1038500000925B462A0051463800FFF744F8050005
:10386000119B01331193F2E46C1C5B462A00514614
:103870002520B847119B013311932500E7E46C1C08
:103880005B462A005146B847119B0133119325002E
:10389000DDE40A4FD0E45D450DD35B465A1E5B461E
:1038A00051460020B847280013B0F0BCBB46B246D2
:1038B000A946A046F0BD2A00F1E7C046F526001053
:1038C00010B584B00C0002A902904C600124044899
:1038D000009313006242FFF7A1FC04B010BDC04684
:1038E000F726001000BEFDE703000A4A1268002A0E
:1038F00008D0084A1068C318074A9A4206D3054AF6
:1039000013607047034A05491160F2E70120404205
:10391000F7E7C04608280020000004206432022097
:1039200010B5FFF7DFFF000030B583B00D001900C0
:10393000002A0BD0074B084C019200932B00020089
:10394000200000F061F90120FFF7CCFF034B1A00C3
:10395000F1E7C04650E2001060E2001088FA001063
:1039600010B5EFF30583002B00D000BEFEF740F941
:10397000034C01E008CC9847024B9C42FAD310BD9F
:1039800004D9001010D9001010B503000800110070
:103990001B68984710BD0000F8B507000D00160021
:1039A000437D002B02D0002400200CE003681100AE
:1039B000280098472DE03B7D10E03B681548022128
:1039C0009847601C0134B44214DA002CF3DD2B1943
:1039D000013B1B780D3B5A425341DBB22A5D0A2A58
:1039E000F0D1002BEED1A042E7DA3B68211A28186B
:1039F0009847E2E7B04203DA3B68311A2818984743
:103A0000002E06DDAD19013D2B780D3B5A42534186
:103A10003B75F8BD8806011070B505000368002BE2
:103A200016D00C4B1C6805E0290004C92000FFF7E4
:103A3000B3FF2469002C09D02368002BF9D0064B72
:103A40001B68002BF0D0A342F3D1EDE700232B60DD
:103A500070BDC046F82700200428002070B505007E
:103A60000C000B68802B05D023685A1C2260E418D8
:103A7000257170BD0800FFF7CFFFF5E710B5FDF722
:103A8000B9FE074A002312184B41002B03DB0548FF
:103A900009F0DAFE10BD01225242034BF7E7C0469F
:103AA00040420F0090140020FFFFFF7F10B5024836
:103AB00009F07AFE10BDC04690140020F0B5CE4645
:103AC000474680B583B006000D0090461C00FFF706
:103AD000D5FF81466B1C05D0002C08D0184F194B20
:103AE0001C6807E0300009F0CDFC0500F4E7164F34
:103AF000F5E72469002C17D02368002BF9D0134B6D
:103B00001B68002B01D0A342F3D12A003100200012
:103B1000B8474346002BECD06B46D91D0A230B70E7
:103B200001222000B847E4E74B46002B05D12800CE
:103B300003B0C0BCB946B046F0BDFFF7B7FFF6E72B
:103B400099390010F8270020893900100428002036
:103B50000A4A136802E01A0010321B69002B09D0D0
:103B600013688342F7D1002907D10369136000234A
:103B7000036102E0002900D010607047F8270020A0
:103B800010B5064B1C6800E02469002C04D0636863
:103B9000002BF9D09847F7E710BDC046F827002062
:103BA00010B500F0C7F910BD70B5050009F06AFC4A
:103BB00004000123012201002800FFF77FFFFFF727
:103BC000DFFF200070BD0000F0B5A3B004000E00C0
:103BD000FFF754FF050001AF0023019309483300AC
:103BE00022003900FFF76CFE04003800FFF714FFD5
:103BF000FFF7C6FF002D02D1200023B0F0BDFFF774
:103C000055FFF9E75D3A00100FB400B583B004A981
:103C100001C90191FFF7D8FF03B008BC04B01847F1
:103C200070470000014B00221A7070475D3202207D
:103C30004B79FF2B0CD18B79002B0BD1CB79012B3E
:103C40000AD1082A0AD98A78054B1A70092000E09F
:103C5000002070470020FCE70020FAE70020F8E78A
:103C60005D3202200120704710B5012927D111795A
:103C700053791B020B43134909788B4201D0002072
:103C80001EE05378012B03D0022B11D0002017E047
:103C90009178D3781B021943DB0506D5480A8A05BB
:103CA000D20F7F231940FDF76DFF01204042F6E758
:103CB000642200210020FDF70DFF012000E001201B
:103CC00010BDC0465D320220004870475407011005
:103CD00010B51400012910D15378012B0FD112799E
:103CE00063791B021343072B01D0002006E0054A2D
:103CF0009F33210001F05CFB00E0012010BD00209B
:103D0000FCE7C046AC060110012303700048704771
:103D10008C06011010B50A784B781B0213438A7881
:103D200012041A43CB781B0613439622D200934207
:103D300000D010BD0120002211004042FDF722FFFB
:103D4000024B1860024B19607047C046AC1E002041
:103D5000B01E002010B5FDF74DFD0E4A00231218CD
:103D60004B41002B12DB0C4809F06EFD00280CD0F3
:103D700001200021404201F0E1F9002001F080FC27
:103D80000028F5D1044809F00FFD10BD0122524270
:103D9000024BE8E740420F00FC300020FFFFFF7FAE
:103DA00010B5024B1878FCF75FFD10BD5E320220A3
:103DB00070B5174B1B68002B20D0EFF3108272B642
:103DC000100019680029FCD0BFF35F8F10494A60CA
:103DD000104B00221A700B68BFF35F8F1A6080F3DC
:103DE0001088002400250C4B1878FCF719FD0028DA
:103DF00008D1002400252000290070BDFA24A40069
:103E00000025F0E7044B1878FCF72EFDF3E7C046D9
:103E1000302C00205F3202205E320220F0B585B0E7
:103E2000060014001D000CAB1F78FDF7E3FC220018
:103E30002B0012184B41002B09DB02970B990191C3
:103E40000A9900913000FDF721FB05B0F0BD012279
:103E50005242014BF1E7C046FFFFFF7FF0B5C64677
:103E600000B584B00500884616001F000AAB1C7818
:103E7000FDF752FA0294019700962A004346FFF795
:103E8000CDFF04B080BCB846F0BD000010B582B0D4
:103E90002248002109F0C0FC00281ED1204B1B68DD
:103EA000002B18D0EFF3108172B608001A68002AB0
:103EB000FCD0BFF35F8F1A4A51601A490B78DBB20E
:103EC00001240C701268BFF35F8F0021116080F332
:103ED0001088002B17D002B010BD012000214042F5
:103EE00001F02CF9002001F0A3FB04000B4809F0BD
:103EF0005BFC002CEFD00C4B1B68002BEBD00B4A6B
:103F000010689847E7E70A4A013300930023FA2034
:103F100080000021FFF7A2FFDDE7C046FC30002053
:103F2000302C00205F320220AC1E0020B01E00208A
:103F3000B13D001010B582B0D0231B061C68FDF700
:103F4000EBF9FDF71DFBA04230D1274B1B78002178
:103F5000002002F057F8254B1B68002B2CD00120C5
:103F6000FCF746FF224C20702249FF231840FCF743
:103F7000A9FC20780121FCF76DFC0520FCF784FCEE
:103F8000041E1DD00120FCF7A3FB01001A4B1800F2
:103F9000FCF7A0FF194900220520FCF7BDFC1848DA
:103FA0000121FFF7D5FD200002B010BD154B164AC8
:103FB0001648C621FFF7B8FC0C48FCF747FFCEE7D0
:103FC0000D4808220021FEF789FB114A01230093C6
:103FD0000023FA2080000021FFF740FFC043C40FF8
:103FE0000028E0DADBE7C046EC870410FC30002054
:103FF0005E3202208D3E0010302C0020A13D0010CA
:10400000D00E00201CDD00108407011090E200108B
:10401000B13D001010B5002001F0EEFA10BD000017
:1040200070B505000C00FFF7F5FF002834D0002024
:1040300001F0FEFA002832D0FDF7DCFB1B4A00231A
:1040400012184B41002B19DB194809F0FDFB002821
:1040500028D0FFF7DFFF002804D0002001F0E8FAA5
:1040600000280FD101200021404201F067F803240D
:1040700064420F4809F098FB200070BD01225242B3
:104080000C4BE1E722002900002001F0DDFA041EBC
:10409000EFD103246442ECE703246442ECE70324F9
:1040A0006442E9E703246442E6E7C04640420F0069
:1040B000FC300020FFFFFF7FF0B5C64600B580460C
:1040C0000C00FDF797FB314A002312184B41002BDF
:1040D00007DB2F4809F0B8FB002806D180BCB846A2
:1040E000F0BD012252422B4BF3E7FFF793FF00286C
:1040F00049D1294B0020002118605960244809F05B
:1041000053FBEBE701200021404201F017F80020AB
:1041100001F0B6FAFFF77EFF0028EFD0002001F093
:104120002BFB002820D0A542E8DA661B002001F016
:1041300023FB0200864200DC3200002AE2D0434624
:104140005919002001F0F4FA060001200021404234
:1041500000F0F4FF002001F093FAAD19FDF74AFBDF
:104160000D4B18605960DEE7FDF744FB0A4B1E68F3
:104170005F680A4A002392197B419942BED8D2D186
:104180009042D0D9BAE70025CDE7C04640420F00A3
:10419000FC300020FFFFFF7F6816002020A10700F1
:1041A000004870470008011000487047AC07011034
:1041B00010B50400154B1B78002B0ED0002C11D12C
:1041C000134B144A5A80012301335B009BB2104801
:1041D000C02292001343038010BD0C48112100F04F
:1041E0002DF8EBE7052C0ED80B4BA400E458002368
:1041F000122BE9D8E15C0029E6D00133044A5800CB
:104200008152DBB2F4E70020E6E7C0460C31022021
:10421000D0270020090400009407011010B50248BF
:1042200000F038F810BDC046EC2E002010B5024951
:104230000822FEF759FA10BDEC2E002010B5002917
:1042400001D0002308E00F4B0F4A10483B31FFF725
:104250006BFB3732C25401334A1E9A420ED90F2BE0
:104260000CD85A080A4CA45C01229A4392001441CB
:104270000F222240092AECDC3032EBE7C018002381
:10428000037010BD1CE300101408011024E300109B
:10429000EC2E002070B588B0040004AD0D22002182
:1042A0002800FEF71BFA0D2200216846FEF716FAD9
:1042B0004B232B700D226946280009F06DFA00236C
:1042C00004E05A1D69468A5CE2540133072BF8DD8D
:1042D00008B070BD70B582B07F230340C509274C7C
:1042E0005E0076197601A419A0706842684160707A
:1042F0000020E0702183E276012D1ED0D800204AF4
:10430000944660441D4A5900491949015218906069
:104310001A4A59004919490152189268002111603E
:10432000002B10D1154A5B005B195B01D3180022EA
:104330005A60144ADA6002B070BDD800124A94463E
:104340006044A060E4E7012D0BD0591EC9000F4A5C
:1043500094466144094A5B005B195B01D2185160C5
:10436000E9E7591EC9000A4A94466144034A5B00C2
:104370005B195B01D2185160DDE7C0460C280020B4
:104380008400105000011050800010500C0010509C
:104390000800105010B5038B3F333F229343C27E79
:1043A000022A08D008490A68C260D3180B60074A7D
:1043B000934202D810BD5B00F4E7054B054A06485E
:1043C0005221FFF7B1FAC046142C0020FF0F105005
:1043D00074E5001074080110B8E50010F8B57F25E9
:1043E0000540C6096B009B195B010E4C1C19FFF7B9
:1043F00071FF002D00D1F8BD0A4B6D00AD196D01A4
:104400005D19298B2000FFF7C5FFEB7E9B06E9684D
:10441000054A4A4013438022120613436A68136018
:10442000E9E7C0460C2800200000105010B5040039
:104430007F202040E409400000194001024BC018D1
:1044400000F026F910BDC0460C28002010B5002849
:1044500004D101210520FCF7FDF910BD034B044AEE
:1044600098210448FF31FFF75FFAC04628E60010A4
:1044700064080110B8E5001010B5002805D100222D
:1044800000218020FFF7D2FF10BD034B034AA22179
:104490000348FF31FFF748FA28E6001054080110DE
:1044A000B8E50010024B80225202DA647047C04621
:1044B0000020115070B5041E27D100F0C7F8164D2A
:1044C0000C23AB671549FF220520FCF725FA144899
:1044D00040220021FEF702F9002240210020FFF7D0
:1044E0007DFF002240218020FFF778FF09F0CCF902
:1044F00001232B6480239B05EB649023094AEA5037
:104500002000FFF7CFFF012070BD074B074A642151
:104510000748FF31FFF708FA00001150DD060020C0
:104520000C28002010D0010028E600108808011097
:10453000B8E50010044B1970002904D0034A9023F9
:1045400080218902D1507047593202200020115039
:104550000B785B0602D14B78052B00D070478A7828
:10456000014B1A60FAE7C0460000115010B5CA7836
:104570009207920F012A0AD088780B7949790902AB
:1045800019434905490DFFF729FF012010BD0020FF
:10459000FCE710B509F078F910BD000010B5040073
:1045A000080011001A00002C03D1FFF73FFF012083
:1045B00010BD034B034A812103488900FFF7B4F97A
:1045C00028E6001044080110B8E5001010B57F235C
:1045D000180008400B4205D1CB09012B0ED0022256
:1045E000074B9A66C909400040184001054BC018A6
:1045F00080221201002109F04FF910BD0122EFE7DE
:10460000002011500C28002010B57F221000084017
:104610000A4200D110BDC909400040184001044BB6
:10462000C0180023C3700022024909F035F9F1E7F0
:104630000C280020FFF7FFFF04E00A780270013128
:1046400001301A00531E002AF7D1704710B580239D
:104650005B040A4A13600A4A13600A4B1A688023F3
:104660005B049343F9D18022520100210648FEF7F2
:1046700035F8064B09225A6710BDC04600E00040DD
:1046800000F0004008C00040000010500000115031
:1046900070B504000D001600837E002B17D1A68292
:1046A0000023E3820133A3762561200009F08CF812
:1046B000002804D00C4A902380218902D150200088
:1046C00009F0B2F800280AD00123237770BD817861
:1046D0000648FFF799FA200009F0CEF8DFE720003E
:1046E00009F0BAF8F2E7C0460020115018E70010B0
:1046F00070B50500002408E09B1A5B01164A9B1860
:10470000DB68280098470134E4B2144B1A78230080
:10471000511CA1420DDBA242EED9114B1B68620174
:104720009B18002BECD10F490F48104AFFF76CFA89
:1047300010E00F4C542200212000FDF7CFFF201D78
:104740001022FF21FDF7CAFF200014302022FF2194
:10475000FDF7C4FF70BDC046040A011058320220A4
:10476000E0170020D009011050E7001025020000DA
:104770009019002010B5FFF7BBFF00F065FE10BDDB
:1047800070B505000C001600486900F067FE63690B
:10479000320001212800984770BD0000F0B5DE46C8
:1047A00057464E464546E0B583B082460139C8B209
:1047B000FFF7FAFC002803D043789946022B0CD06F
:1047C00056495748574AFFF71FFA002003B0F0BC7C
:1047D000BB46B246A946A046F0BDC5796C11012280
:1047E000514B1440240119781026B143214319700C
:1047F000AD112A405201C9B22024A1430A431A70C4
:10480000060009368278C3781B02134383469B4413
:104810004B460193370066E0FB7899463A78BF181B
:1048200068E03E493E48414AFFF7EEF90020CDE7F7
:10483000009AD31A5B013E4E9E193369220039005B
:1048400050469847082801D9844216D20135EDB266
:10485000384B1B7800955A1CAA423EDBAB42E7D985
:10486000354B1B686E019E19002EE6D12B492C4852
:10487000324AFFF7C9F90020A8E73400009E0090F3
:104880004B46012B11D00020494681421BD9BB78F1
:104890001B18DBB2244AD2181279FF2A0CD1224A03
:1048A000D3181D710130C0B2EFE72169244A91424B
:1048B000E9D1019B9946E6E718491948214AFFF7D3
:1048C000A3F9002082E720482B00009C2200390039
:1048D00001F06EFCA446674400E02E00154B1B78E7
:1048E00001339E420FDC5F4515D27B780B2B93D0B2
:1048F000012399467A78042A93D15B46DA1B93B256
:1049000000251C00A4E7852204490548D200FFF7D2
:104910007BF900205AE7012058E7C046A40901109E
:1049200050E70010D603000090190020F1030000AA
:10493000040A011058320220E0170020FA03000098
:10494000F558001019040000A419002070477047A2
:10495000002070470020704770B505000C00CB7830
:1049600088780F2B53D89A002E498A589746FFF71C
:1049700017FC021E05D012232100280000F018FDAC
:1049800046E0294929482A4AFFF73EF900203FE03E
:10499000FFF79AF9021E3CD08178C3781B020B43C3
:1049A0002100280000F004FD32E0022B0CD0FFF7BC
:1049B000D1FF021E2FD09178D3781B020B43210028
:1049C000280000F0F5FC23E0FFF7EEFB021EF2D119
:1049D00015491648174AFFF717F9002018E0237900
:1049E000617909021943FFF7E3FB021E15D0037832
:1049F0002100280000F0DCFC0AE0FFF7A9FF021EFE
:104A00000DD003782100280000F0D2FC00E0002047
:104A100070BD0020FCE70020FAE70020F8E7002046
:104A2000F6E7C046A40801108C09011050E70010F9
:104A30003A040000610400007047704770477047F7
:104A4000024B5878431E9841C0B27047901900201D
:104A5000024B18784007C00F7047C04690190020DD
:104A6000034B1878FF38431E9841C0B27047C046C8
:104A7000040F0020F8B505000F00FFF7F1FF061E38
:104A800048D1002F21D02E4854220021FDF726FEC8
:104A90002C4B00221A702C4C2000FCF7D7F92B4B22
:104AA0001C602B4C2000FCF71FFA143C200001F086
:104AB00019FF284B1C60284B002B04D02748FFF718
:104AC00023F9274B1860002410E0E92225492648E5
:104AD0005200FFF799F81DE09B1A5B01234A9B18CF
:104AE0005B68002B10D098470134E4B21B4B1A7856
:104AF0002300511CA1420FDBA242EDD9184B1B68C9
:104B000062019B18002BEBD1F8221649164852007F
:104B1000FFF77AF83000F8BD154B1D7039002800FA
:104B2000FFF7C8FC061E03D02800FFF78FFCF1E753
:104B3000FC220C490C485200FFF766F8EAE7C04631
:104B4000901900205A32022088190020E419002010
:104B5000FC0E0020E8190020093D00105832022008
:104B6000E0170020F409011050E70010040A0110BA
:104B7000040F002070B50D00104B1E788B7870224A
:104B80001A420DD10E4B9978280001F0BBFA041E91
:104B90000DD029003000FFF7E9FC0400200070BDB3
:104BA00008490948094AFFF72FF80024F6E70549A4
:104BB0000548074AFFF728F8F0E7C046040F002031
:104BC000901900205C09011050E700100B0500004F
:104BD0000C050000F0B5D6464F464646C0B58146A6
:104BE0000C0017009846089B9A46002517E01849C4
:104BF0001848194AFFF708F800263000E0BCBA460A
:104C0000B146A846F0BD9D2211491248D200FEF7D8
:104C1000FBFFF2E7099A13702378E4180135AF42DD
:104C200014DD6378052BE2D1E1788907890F4145CE
:104C3000DDD121004846FFF79DFF061EE3D0A37893
:104C4000DA09012AE6D052461370E5E70126D4E7D7
:104C50006C09011050E70010E704000010B57F2038
:104C60000840C909400040183030044BC0180430D7
:104C7000034B196801F002FA10BDC04690190020DC
:104C8000E419002010B57F200840C90940004018F1
:104C90003030044BC0180430034B196801F016FA89
:104CA00010BDC04690190020E4190020F0B5C6469A
:104CB00000B582B001931A4800787F250D40CE09D7
:104CC000184C6F00E419A41930342479E4071DD47A
:104CD000144C6F00E419A419303423790127BC4621
:104CE00067463B432371019BFFF758FC002813D113
:104CF0000C4B6D005B199B1930331A7901218A43E3
:104D00001A711A7903318A431A7105E00649074876
:104D1000074AFEF779FF002002B080BCB846F0BD1C
:104D2000040F0020901900204C09011050E70010DA
:104D30003905000070B50A4B18787F240C40CD0966
:104D4000FFF744FC074A640013195B1930331A79E2
:104D500002210A431A711A7901210A431A7170BD9E
:104D6000040F00209019002070B50A4B18787F249A
:104D70000C40CD09FFF748FC074A640013195B1982
:104D800030331A7902218A431A711A7901398A4318
:104D90001A7170BD040F0020901900207F220A4074
:104DA000C909044B52009B185B18303318798007EF
:104DB000C00F704790190020F0B585B005000C00B9
:104DC000002000F04BFB237860221A40602A1AD0A2
:104DD000402A20D02378DB06DB0E012B00D1D6E061
:104DE000022B00D116E1002B00D07CE1202A1CD040
:104DF000002A00D07FE16378092B00D97DE19B0078
:104E0000C54AD3589F465532C449C5489200FEF75B
:104E1000FBFE002668E1C34800F020FB22000121D0
:104E20002800FEF755FF06005EE123790F2B00D91D
:104E30005DE1BD4AD3181B79BC4A1278934207D270
:104E4000BB4A11685B01C918002909D100264BE152
:104E5000511C994200DA4CE19B1A5B01B549591883
:104E600022002800FFF78CFC06003DE1200000F046
:104E7000FBFAA1782800FFF7FFFAAB4A137802216A
:104E80000B43137001262FE1A74B5B7802AA063271
:104E9000137001232100280000F08AFA012623E183
:104EA000A678A14B5B78B3422CD09F4B5B78002B4C
:104EB0000CD19D4B5E70002E22D031002800FFF7F0
:104EC0006DFC061E12D0FFF7B7FD1BE00021280085
:104ED000FFF730FB2800FFF75CFB934FBB78019393
:104EE0002800FFF705FC019BBB70E2E7C9228B4954
:104EF0008B489200FEF788FE8B4B00225A70F3E03D
:104F0000FFF79BFD2100280000F03EFA0126EBE0B0
:104F100021002800FFF720FD0600E5E0A278E378F5
:104F20001B021343012B01D00026DDE07E4A1378DB
:104F300008210B4313702100280000F025FA0126F8
:104F4000D2E0A278E3781B021343012B01D00026A4
:104F5000CAE0754A137808218B431370210028009A
:104F600000F012FA0126BFE06F4B1A78510992083F
:104F70000223134001220A40134302AA063213807F
:104F800002232100280000F013FA0126ACE0237967
:104F90000F2B00D9B3E0644AD3181B79634A127807
:104FA000934223D2624A11685B01C918002900D1DB
:104FB000A7E022002800FFF7E3FB061E00D093E0E5
:104FC000237860221A4200D08EE063780A3B012BDE
:104FD00000D989E0002000F041FA63780A2B0ED056
:104FE0002100280000F0D0F901267DE0511C9942F3
:104FF00000DA88E09B1A5B014E495918D9E702ABE9
:105000009A1D0023137001332100280000F0D0F90D
:10501000013669E021797F200840CE0970230B42D8
:1050200017D1414B40001B189B191B7D3F4800784E
:10503000834215D23E4806685B01F618002A19D053
:10504000002E62D0220031002800FFF799FB0600F5
:105050004AE032493248384AFEF7D6FD002643E09E
:10506000461C9E4204DB1B1A5B01324E9E19E5E78B
:105070000026E3E76378012B10D0032B0ED0002B22
:1050800045D12800FFF78AFE02AB9A1D108002234B
:105090002100280000F08CF9012625E0A078E278B4
:1050A0001202024304D1012B19D02800FFF742FE5F
:1050B000002E2ED0220031002800FFF761FB0020D7
:1050C00000F0CCF9184B35229B5CDB07DE0F002B80
:1050D0000AD12100280000F057F9012604E0280039
:1050E000FFF742FEE4E70026300005B0F0BD0026E1
:1050F000FAE70026F8E70026F6E70026F4E70026A0
:10510000F2E70026F0E70026EEE70026ECE70026AF
:10511000EAE70126E8E7C04600090110B8090110D6
:1051200050E70010D13C00109019002058320220A6
:10513000E0170020040A01109503000030B585B087
:10514000FFF78EFC002808D105B030BD01AC2078F7
:10515000FFF710FB2279634B9A70634B1C686269FE
:10516000EFF3108172B61368002BFCD0BFF35F8F92
:10517000A16101A9200001F058FB6269A369BFF396
:105180005F8F0021116083F310880028DCD001AB11
:105190005B78082BE1D89B00544AD3589F4601AB5B
:1051A0001878FFF7E7FAFFF748FCD6E7504B1B7873
:1051B000002B2DD04E4A1378013BDBB213701378CD
:1051C000002BCAD1474B1A78012401210A431A70D7
:1051D0003422995CA1439954995C042081439954E9
:1051E0000132995CA1439954995C8143995401AB74
:1051F000187802A9FFF7E0FD0028AED101AC2078B5
:105200000021FFF7E3F920788021FFF7DFF9A4E719
:1052100038493948394AFEF7F7FC95E701AB197967
:105220007F220A40CC092F4B50001B181B1930332A
:1052300018790125A843187118790335A843187106
:10524000002A15D0274B52009B181B191B7D2C4A96
:105250001278934213D22B4A12685B01D318002BA9
:1052600015D09C6901A84279039B0078A04774E798
:1052700001A84279039B007800F004F96DE7501C07
:10528000984204DB9B1A5B011F4A9B18E9E7A422A2
:10529000184919489200FEF7B7FC55E7114B1B78E7
:1052A000DB0700D459E70F4B18780007C00FFFF752
:1052B000C5FB52E70B4B1B78DB0700D44DE7FFF72C
:1052C000BEFB4AE7029B002B00D146E703989847B4
:1052D00043E7044BDB78DB0700D43EE70298FFF797
:1052E00036FB3AE790190020E81900202809011040
:1052F0005A320220E409011050E700106502000054
:1053000058320220E0170020040A011010B50023D3
:10531000CB56002B05DB802100230022FFF7C6FCC3
:1053200010BD0021F8E70000F8B50500144B9F8977
:10533000DE89BB1B9BB21C1C402B00D94024A4B2AD
:105340000F4B1B785BB2002B08DB0021B74213D058
:105350000C4A23002800FFF7A9FCF8BDB74209D08A
:10536000074B9968402C09D806482200FDF7BCF984
:105370008021EBE78021E9E70022EAE70020ECE763
:10538000701900203019002070B506000D00074C80
:1053900008222000FDF7A8F90023A360E381A38180
:1053A00029003000FFF7B2FF70BDC0467019002021
:1053B000F0B5C64600B580460C0016001D001F4B18
:1053C00008221F001800FDF78FF9BE600023FB8143
:1053D000A379E179090219430B1CA94200D92B1CBE
:1053E00099B2164A9381A279E3791B02134319D02B
:1053F000002901D0002E08D04046FFF795FF041E7B
:105400000AD0200080BCB846F0BD0D490D4872227C
:10541000FEF7FAFB0024F4E709490A487422FEF774
:10542000F3FBEEE721004046FFF770FF041EE8D1D2
:10543000034904487622FEF7E7FBE2E770190020F3
:105440005C0A011050E7001010B503481422002137
:10545000FDF744F910BDC04670190020014B1861DA
:105460007047C0467019002010B50100044C082296
:105470002000FDF739F90023A360E381A38110BD6B
:105480007019002070B505001C00C909314B1B784C
:10549000DB098B4216D0002C07D02F492F489D22C4
:1054A000FEF7B2FB0024200070BD2A4C2100FFF75C
:1054B0004FF82369002B03D0264A03212800984780
:1054C0000124F0E7234B1B785BB2002B07DB214B59
:1054D000986800283CD022492200FDF705F91D4AB2
:1054E000D389A1B25B189BB2D381916809199160ED
:1054F000D288934201D03F2C1FD8164B1B69002B3A
:1055000005D0144A02212800984700280BD01149E1
:105510002800FFF7FBFE041EC5D10F490F48C52226
:10552000FEF772FBBFE700212800FFF74FF880214C
:105530002800FFF74BF80124B5E72800FFF7F4FE39
:10554000041EB0D104490548CD22FEF75DFBAAE751
:105550000024A8E770190020440A011050E7001049
:105560003019002070B50500FFF76AFA002802D153
:105570000024200070BDFFF76BFA041EF8D11C4B0D
:10558000C8226A439B18DB78002BF1D0C8266E43F3
:105590001036174BF618300001F030F93F28E8D9E3
:1055A000134BC8226A439B18D9780020FFF756FB9B
:1055B000002801D10400DCE7300001F01FF93F288A
:1055C0000DD9EA010B4BD218094BC82169435B186E
:1055D000D97840230020FFF769FB0400C9E7044B9A
:1055E000C8226A439B18D9780020FFF74BFBC0E71D
:1055F00068180020E417002010B50400FFF720FA17
:10560000002801D1002010BDFFF722FA002808D1A0
:10561000064BC82262439B181B79DB0703D5013078
:10562000F1E70020EFE70020EDE7C0466818002012
:1056300010B5C823434310330248181801F0ACF8E2
:1056400010BDC0466818002070B50400C820604333
:105650000300103307481818074B9A4208D892B233
:1056600001F004F905002000FFF77CFF280070BD61
:10567000024AF5E768180020FEFF0000FFFF000067
:1056800070B50500FFF7DCF9002801D1002070BDDE
:10569000FFF7DEF90028F9D1C8246C432034204BF1
:1056A000E4180434200001F077F8002801D100202C
:1056B000EDE71B4BC8226A439B1899780020FFF73F
:1056C000CDFA002801D10020E1E7EE014036154B6C
:1056D000F61840223100200001F0C8F8041E14D052
:1056E0000F4BC8226A439B189978030032000020B0
:1056F000FFF7DCFA002801D02000C8E70A490B4870
:10570000D522FEF781FA0020C1E7054BC8226A4383
:105710009B1899780020FFF7B5FA0020B7E7C0463C
:1057200068180020E41700208C0A011050E70010D0
:1057300070B50500C824444320340C4BE4180434ED
:105740000B4B9A420BD892B2200001F0C6F806002B
:10575000200001F021F83F2803D8300070BD054A31
:10576000F2E72800FFF78CFFF7E7C0466818002033
:10577000FEFF0000FFFF000010B5C8235843203093
:10578000024BC018043001F039F810BD6818002031
:10579000F0B5CE46474680B583B02648C8220021E2
:1057A000FCF79CFF244B00221A700027002F04D026
:1057B00003B0C0BCB946B046F0BD1E4EC8247C4301
:1057C0003519FF236B71E1235B02AB600023984620
:1057D0002B736B730833AB732100383189192000A8
:1057E00010308019434600930133402200F096FFA9
:1057F00021007831891920002030801904300123DC
:105800000093402200F08AFF2300B8339946B14448
:105810004846FBF71BFBC034A4192000FBF716FB1E
:105820004346EB614B462B622C6343466B63013767
:10583000FFB2BBE7681800206418002010B50023F1
:10584000002B01D0012010BD19000D4AC82058437B
:105850001218106A146B002806D0094AC820584351
:1058600012180020D0611062002C06D0044AC82013
:10587000414352180021116351630133DBB2DFE76A
:105880006818002070B50024002C00D070BD2500E1
:10589000C8206043154BC01805220021FCF71EFFED
:1058A000134B1B78DB070FD5114B1B789B0713D5C8
:1058B000C820684320300D4BC0180430012101F08E
:1058C00030F80134E4B2DFE7C82060431030074B02
:1058D000C01801F007F8E7E7C82068432030034B01
:1058E000C018043000F0FEFFE2E7C0466818002050
:1058F00064180020F0B585B003904B79022B63D17A
:105900008B79022B64D10027002F07D0002F0FD1F5
:105910008B7833700C780C19092515E0C8237B436C
:105920002C4E9E19B378002BF0D00137FFB2EBE775
:10593000422229492948FF32FEF766F9002544E052
:1059400023785D19ADB2E4186378242B01D1954218
:10595000F6D9052B09D06378042B02D163790A2B81
:1059600018D03800FFF7FEFD2FE021000398FFF765
:1059700001F9002806D0A378737023785D19ADB2C1
:10598000E418E8E7542214491448FF32FEF73CF9C2
:1059900000251AE021784D19ADB26118B31C0193AE
:1059A000F31C0093022302220398FFF713F9002847
:1059B00002D00E35ADB2D4E7B122074907485200F4
:1059C000FEF722F9002500E00025280005B0F0BD13
:1059D0000025FAE768180020800A011050E700103F
:1059E000F8B51400127860231340202B00D082E019
:1059F0000025002D0ED0002D00D07EE06378222BF4
:105A000042D017D8202B1FD0212B11D1012933D000
:105A1000012071E0C8236B433C4A9E18D25C277971
:105A200063791B023B439A42E5D00135EDB2E0E7D2
:105A3000002061E0232B05D101294BD003294ED052
:105A4000012059E0002057E0012903D0032909D0A3
:105A5000012051E03200083207232100FFF7A8FCA3
:105A6000012049E02A4B002B49D0310008312800A1
:105A7000FEF750F901203FE03200083207232100F1
:105A8000FFF796FC012037E0012903D0032906D057
:105A9000012031E02100FFF777FC01202CE0A27803
:105AA000E3781B021343012427001F405A081440C7
:105AB000337101217940C9B23000243000F031FF48
:105AC000144B002B1DD022003900280000E000BF3D
:105AD000012011E02100FFF757FC01200CE00E4BE4
