:020000041000EA
:1000000000B5324B212058609868022188439860DF
:10001000D860186158612E4B002199600221596106
:100020000121F02299502B49196001219960352056
:1000300000F044F80222904214D00621196600F024
:1000400034F8196E01211966002018661A6600F04E
:100050002CF8196E196E196E052000F02FF8012189
:100060000842F9D1002199601B49196000215960AB
:100070001A491B48016001219960EB211966A021F2
:10008000196600F012F800219960164914480160C1
:100090000121996001BC002800D000471248134993
:1000A000086003C880F30888084703B5996A0420EC
:1000B0000142FBD001200142F8D103BD02B5186610
:1000C0001866FFF7F2FF186E186E02BD00000240BE
:1000D000000000180000070000035F00212200005C
:1000E000F4000018222000A00001001008ED00E03C
:1000F00000000000000000000000000074B24E7A12
:1001000000200420F7010010CB010010CD010010E9
:10011000C9010010C9010010C9010010C901001077
:10012000C9010010C9010010C9010010CF01001061
:10013000C9010010C9010010D1010010D301001045
:10014000C1010010C1010010C1010010C101001067
:10015000C1010010C1010010C1010010C101001057
:10016000C1010010C1010010C1010010C101001047
:10017000C1010010C1010010C1010010C101001037
:10018000C1010010C1010010C1010010C101001027
:10019000C1010010C1010010C1010010C101001017
:1001A000C1010010C1010010C1010010C101001007
:1001B000C1010010C1010010C1010010C1010010F7
:1001C000EFF30580103800BE00BE00BE00BE00BECA
:1001D00000BE00BEF2EB88718CB10010A8B1001017
:1001E0003802001090A31AE71E481F49086006C88D
:1001F00081F3088810471D480068002801D019487D
:10020000F3E70DA40ECC002902D000F012F8F9E7B4
:100210001749184A002000E001C19142FCD116495B
:100220008847164988471649884700BEFDE701C937
:1002300001C29A42FBD37047A8B10010C000002051
:10024000D00D0020B8BE00100000042000000420E3
:10025000B8BE0010001004200010042000000000B0
:10026000704700000000000008ED00E0000000D032
:10027000D00D00202C24022029320010C9030010C8
:10028000E9310010F8B5C04606480749091A8B1035
:10029000C90FC91810B5491003D0044B002B00D06A
:1002A000984710BDD00D0020D00D002000000000A8
:1002B000054B10B5002B03D00449054800E000BFF2
:1002C000FFF7E2FF10BDC04600000000141E002032
:1002D000988C001070B505000C0008F0E7FB611B5E
:1002E000013101F019FA481970BD000070B58AB0EB
:1002F00002E0322005F0B8FC06F05EFE0028F8D0DF
:10030000012007F053FC0028F3D008F06BFB002815
:1003100002D108F047FB21E0214808F067FB2148A3
:1003200008F064FB204808F061FBF2E71F4A02AEC8
:10033000009523001E21300002F00EFF300008F06F
:10034000FFFB02003100012007F0C6FC012007F08E
:1003500067FC12E0FA20800005F086FC28210020CE
:10036000FFF7B8FF040012496420FFF7B3FF050050
:10037000012007F01BFC0028D8D108F033FB00282F
:10038000E8D00C4A02AE009523001E21300002F096
:10039000E3FE300008F02AFB08F004FBDAE7C04671
:1003A000988C0010BC8C0010E48C0010008D0010A4
:1003B000DC050000088D001010B50120002140422E
:1003C00007F084F9F9E7000030B585B0002100207E
:1003D00007F038FF08F0DAFA002008F081FB08F097
:1003E0005BFB002503958024E4000E490E4803AB17
:1003F0000193032300930023220005F08DFA0B499B
:100400000B480195022300930023220005F084FA93
:100410000398012105F022FB05F0DAFA002005B06F
:1004200030BDC0461C8D0010B9030010208D001097
:10043000ED02001010B5114CA5440400104A01A9AA
:1004400007F0D0FB012C03D082239B009D4410BDFC
:1004500001AB0A221A54013000221A54094808F04C
:10046000C5FA01A808F0C2FA07490322200007F0E4
:1004700033FC200007F0D4FBE6E7C046F8FDFFFFA1
:1004800001020000248D0010388D001010B580236B
:10049000DB05186803051B0D0B4A934207D10B4B74
:1004A000034080229201934207D1000F10BD084BF8
:1004B000084A0948132102F09BFE084B054A0648EA
:1004C000142102F095FEC0462709000000F0FF0F3E
:1004D0003C8D00108CA60010608D0010A88D0010BF
:1004E0000FB400B583B0084802F0A6FF049B002BB0
:1004F00007D005A90191180002F0AEFF034802F0F1
:100500009BFF012002F04EFEBC8D0010B88C001045
:1005100010B50148FFF7E4FFCC8D0010EFF3108019
:1005200072B6034B1B68002BFBD0BFF35F8F704785
:100530002C0100D0BFF35F8F024B00221A6080F3C2
:10054000108870472C0100D0F8B506000C0015008B
:10055000FFF7E4FFE308F718F15C072222400123CC
:1005600093400B4205D1DBB20B433B70FFF7E2FF38
:10057000F8BD21002800FFF7B3FF0000054A1078FE
:10058000431CDBB21370172B02D9130010221A7010
:100590007047C046C00B002010B50100024A034B53
:1005A0001800FFF7D1FF10BDDC8D0010C819002026
:1005B000002307E0054A9A189200BFF35F8F0021DD
:1005C000116001331F2BF5D97047C046400000343D
:1005D000074B9B68103080001950BFF35F8FBFF34B
:1005E0005F8F044B0021196082F310887047C0466A
:1005F00000ED00E0240100D00048704700E400E076
:1006000010B5FFF7F9FF002302E0034A04C00133ED
:10061000072BFAD910BDC0468080808010B50388B2
:10062000DA0A1C2A05D15B055B1502335B00C01892
:1006300010BD034B034A8E210348490002F0D8FD48
:10064000FC8D0010C8A60010148E001010B5091AF9
:100650000B1F0A4A88180A4A904208D8C90706D4CC
:100660005B105B055B0D0748184380B210BD064B5D
:10067000064A87210648490002F0BAFDFC0700003F
:10068000FE0F000000E0FFFF588E0010BCA6001017
:10069000148E001001238340034A10681840431E43
:1006A0009841C0B27047C04600E100E0002A05D082
:1006B000044BC0225200995019607047014A8023B0
:1006C000D150FAE700E100E010B50A001F23034013
:1006D000012199404009FFF7E9FF10BD024B9B68DB
:1006E00010308000C058704700ED00E070B5040085
:1006F0000D00EFF3108672B60C4B1B68002BFBD07D
:10070000BFF35F8F2000FFF7E9FF094B984201D04C
:10071000A84205D1320029002000FFF759FF70BD23
:10072000044B054A0548ED2102F062FD240100D08A
:10073000C1010010888E0010F0A60010148E001069
:10074000F0B5DE4657464E464546E0B589B081468F
:1007500001911500EFF3108B72B66F4B1B68002BE5
:10076000FBD0BFF35F8F6D4B00269E57002E40DB02
:100770007400A419A4006A4824180622A256674BE4
:100780001A70684B9A684B4610339B00D3589846B2
:100790001B1A2F2B3BD9644B984531D105AF634BC6
:1007A0003B80634973009A46981980005C4B9846D9
:1007B00040440230FFF74AFF78805E4BBB80FF2346
:1007C000BB71FD71019B0793330053449B0043446D
:1007D00007CF07C301231C43A0465A46414648465B
:1007E000FFF7F6FE09B0F0BCBB46B246A946A046EC
:1007F000F0BD514B514ABE215148490002F0F8FC6E
:10080000504B4E4A84214E48FF3102F0F1FC012347
:1008100042469A439246101A0C2100F0A5FF002987
:100820000FD153460027DA79AA4212D90621595628
:1008300000290DDB4A005218920039491F008B181D
:10084000F1E7414B3D4ACA213D48490002F0D0FC46
:100850001F00002F2ED005AB3C4A1A80813A5A80E7
:100860000623FB560293002B17DA394805AB9A464C
:100870009880029A9A71DD71019A0792381D2100C1
:10088000FFF7E4FEB880BE71254B7200921992000A
:100890009B18524613CA13C39FE7381DFFF7BEFECD
:1008A00001007000801980001D4BC0180430FFF754
:1008B000CDFEDBE705AF1D4B3B801D497300029366
:1008C0009B199B00164A90461A0042440392901CC2
:1008D000FFF7BCFE7880039A101D5146FFF7B6FE65
:1008E000B8801C4B52464146521A524153431B0D8D
:1008F000BB71FD71019A0792029B9B199B004344B7
:1009000007CF07C3114B52461380813B538001230D
:100910001C43A04661E7C046240100D028240220E1
:10092000C40B002000ED00E0C101001000A1FFFF9A
:10093000F40B002001BDFFFFC08E0010D8A60010F0
:10094000148E0010E88E0010108F00100148000077
:1009500001BD0000AAAA000070B505000C00FFF759
:100960004BFEAB089B00C218116803232B40DB0031
:10097000FF20984081439C402143116070BD0000DE
:10098000F8B5012202432C4BD31A2F2B28D8EFF3B2
:100990000583002B2AD0EFF3108472B6274909682B
:1009A0000029FBD0BFF35F8F234D25490600761B3E
:1009B00076417143090D4DB2224989689B00C9589F
:1009C000914219D00021032930D81B4B4A005218FC
:1009D00092009B189B795BB2AB421DD00131F2E7CC
:1009E000194B1A4A1A481B4902F002FC1A4B174AC3
:1009F00017481A4902F0FCFB124A92681849D15074
:100A0000184B1A7882711D70BFF35F8F0B4B002259
:100A10001A6084F31088F8BD074B4A005618B600D8
:100A20009E19FF27B771104AB280E9E70F4B074ABA
:100A300007480F4902F0DCFBC40B0020240100D062
:100A4000AAAA000000ED00E0948F0010A0A60010FC
:100A5000148E00107F020000BC8F00108202000084
:100A6000C10100102824022001BDFFFFC88F001023
:100A700093020000024B9C4661448900016070476C
:100A80004000003410B50400FFF778FD010020009D
:100A9000FFF7F0FF01235B426360BFF35F8F10BD80
:100AA00010B50400FFF76AFD01002000FFF7E2FF28
:100AB00001235B42636000232372BFF35F8F10BD8D
:100AC00010B50D4C09E00D4B0D4A0E481A2102F0ED
:100AD0008FFB2000FFF7D6FF08340B4B9C4209D256
:100AE0002368002BF5D0012BEDD12000FFF7D8FFB4
:100AF0000C34F2E710BDC046C00D0020D08F0010AE
:100B000030A70010F08F0010D00D002030B5846A9F
:100B1000151B0B1D9B001B581B1B9D4204D3046A15
:100B200001238B40234202D1043189000A5030BD99
:100B30000004084370470000F0B5DE4657464E46B5
:100B40004546E0B587B0EFF3058303221A4092468D
:100B5000AE4B9200D7583B78534507D101235246FC
:100B600093409946AA4B4A461A6025E1A94BAA4AE6
:100B7000AA48922102F03CFB7A6973009B19DB00C2
:100B80009046984443469C68DD68A54800F04CFBBD
:100B9000001BA941002900DA16E1002D74DB434651
:100BA0001B699B469F4B9B454FD00823F85E4346ED
:100BB000598889B2FFF7BCFF43465969D84702906C
:100BC00003910299039A0B00100013435CD01300A9
:100BD0000A00002847DAA41A9D4100940195434673
:100BE000009C019D9C60DD600021595E002900DAB7
:100BF000EAE078694B005B18DB00C3189A68DB6891
:100C0000A41A9D41002D00DADEE039813D0008354F
:100C1000844604912A000597B346009E019F049BD9
:100C2000002B2ADB0023D45E63001B19DB00634426
:100C30009C68DD6830003900001BA94100291CDBDD
:100C40001A000021595E0491E9E743465B699B461F
:100C50001B6958469847002816D05B461A685B689F
:100C600002920393ADE76E4800F0DEFA029B039C0C
:100C70001B184C4100930194B1E70499059F5E460F
:100C80004346198016809FE0434600229B5E3B81CD
:100C90003A69EFF3108372B611680029FCD0BFF3F4
:100CA0005F8F02217A5E41460A807E803A69BFF3F7
:100CB0005F8F0021116083F3108885E03969EFF3BD
:100CC000108372B60A68002AFCD0BFF35F8FB88821
:100CD00000B201225242BA803A69BFF35F8F00210D
:100CE000116083F310880500BC461CE004930022C9
:100CF0009A5E002A0EDB049B0021595E4B005B18B4
:100D0000DB0063449868D96834003D00241A8D41A3
:100D1000002DEBDA04995D46009B9C4644460D800D
:100D20000023E55E2280002D12DB634658696C00CB
:100D30006419E4000419A668E768614608310822CE
:100D40009A5EAB46049163460093A0468446D0E782
:100D500067463EE00023BB71390008310823F85E86
:100D60000EE001246442E5179460D56008243B5FDF
:100D7000834204D00E8008243B5F1380388130000A
:100D8000431C29D07C6943001B18DB00E218E65E97
:100D900053881BB2002BE4DB1100F0E722002B008C
:100DA00051461F48FFF7B2FE1D4800F03DFA241AD5
:100DB0008D41002D22DC1FD0194B4A465A6308236F
:100DC000FE5E002E00DBD7E6BB881BB2002B00DBEB
:100DD00074E7BB79002BBDD10823FA5E002A0DDB36
:100DE000796953009B18DB00CB189C68DD68631C95
:100DF000D4D16B1CD8D0D1E7002CDDD040BF07B0D8
:100E0000F0BCBB46B246A946A046F0BD2C1E002051
:100E10003C700540849000105CA70010B09000105A
:100E200000400540390B001070B504000D001100A2
:100E30000126AE4006622800FFF758FC0121280079
:100E4000FFF742FC024B9C466444266070BDC046DE
:100E500038200000F8B5CE46474680B506008946E2
:100E600090461F00C160FFF789FB154B9C4660440C
:100E70008000306143463370BBB27381D0221206CA
:100E800012787270012252423281B2809B187380B4
:100E9000002406E0621E736965002D19ED005A53A7
:100EA0000134BC42F6D3074B42469200D650064A64
:100EB00041464846FFF7B8FFC0BCB946B046F8BD4A
:100EC000400000342C1E0020390B001010B5084BD8
:100ED0001A68EFF3108172B61368002BFCD0BFF3D1
:100EE0005F8F034802F08AFC0020002110BDC0463D
:100EF000E422002010B5064B1B69002B01D00448EA
:100F000010BD044B044A0548652102F071F9C04642
:100F10000C0C0020F090001044A70010B0900010BE
:100F2000F8B504000569EFF3108072B6296800294E
:100F3000FCD0BFF35F8F0221665E6569710089197D
:100F4000C9006D18002E02DB0027E95F618021696E
:100F5000BFF35F8F00270F6080F31088002E2CDB1B
:100F60000699296107996961AA60EB606B88013372
:100F70005B04590C002B00D1012169803000FFF780
:100F8000D7FD2169EFF3108372B60A68002AFCD0FE
:100F9000BFF35F8FA2882A80A6802269BFF35F8F8C
:100FA0000021116083F31088E368217801228A40D0
:100FB00003498C4663441A60F8BD01204042FBE7B8
:100FC0003C20000070B582B0060014001D0008AB84
:100FD0001B78002B07D100F02FF922002B00121AEA
:100FE0008B41002B0ADB079B0193069B0093220099
:100FF0002B003000FFF794FF02B070BD0020FBE72C
:10100000F0B5C64600B584B00500884616001F003E
:101010000AAB1C78FFF76EFF0294019700962A0036
:101020004346FFF7CFFF04B080BCB846F0BD0000D8
:1010300030B504000A1443899A422EDA40695300FD
:101040009B18DB00C3182569EFF3108272B628687D
:101050000028FCD0BFF35F8F588885B20904090CC3
:10106000884212D000202369BFF35F8F00211960EE
:1010700082F31088002811D0E368217801228A4089
:1010800007498C4663441A6008E00649294389B23F
:1010900059800123A3710120E5E7002030BDC0463F
:1010A0003C2000000080FFFF10B50400FFF722FF86
:1010B0002100FFF7BDFF10BDF0B5CE46474680B515
:1010C00083B005000C00EFF30583002B15D03F4BD8
:1010D0005B6A8B4209D33D4A926A82420BD28B42B1
:1010E00001D0012002E0002000E0002003B0C0BCDD
:1010F000B946B046F0BD0120F8E7FFF7FBFEC36834
:101100009946037898462E002700484600F08CF850
:1011100002000B00B61A9F41434604339B004A4627
:101120009B581B1A0022BA420FDC0CD020BF274B61
:101130005B6A9C422DD8254A926AAA422BD29C42D5
:1011400025D00120D2E7B342F0D9214A00230093F1
:1011500028002100FFF754FF00281EDD1B4B5B6AAF
:101160009C4205D8194A926AAA4202D29C4200D1F6
:1011700020BFFFF799FF154B5B6A9C4221D8134AA9
:10118000926AAA421FD29C4219D00120AEE70020E9
:10119000ACE70020AAE70120A8E70C4B5B6A9C4261
:1011A00009D80A4A926AAA4207D29C4201D0012079
:1011B0009CE700209AE7002098E7012096E70020AE
:1011C00094E7002092E7012090E7C04600400540E8
:1011D000CD0E0010004870470040054010B50B4B85
:1011E0001B69002B04D00A480A21FFF743FC10BDFD
:1011F000FFF7F0FF0400032100F00CF80348102370
:1012000003222100FFF726FEEDE7C0460C0C00206C
:10121000E422002010B5024A0248FFF795F910BDFC
:1012200014910010CC1900200200436A906A190042
:10123000536A9942FAD1704710B50248FFF7F4FF9C
:1012400010BDC04600400540F8B5D646474680B5BB
:1012500006000D001700984644002418A400294BEE
:101260009C4664446368089A934200D26260331FCC
:10127000DBB29A46012B2ED980221201C0239B019A
:10128000E3181A60204BB200D158002907D05869E2
:1012900000F06AFA013043001B18033BFDD27F01C6
:1012A00023685F40E0233B4080225201A218136074
:1012B0005346012B1AD980239B01E3188022120187
:1012C0001A60089B6360104BB6004246F250C0BCE7
:1012D000BA46B046F8BD012DCED10322C0239B01F2
:1012E000E3181A60A368DB07FCD5D8E721686940DA
:1012F00003230B401360A3680122AA401A42FAD0CC
:10130000D9E7C04600800040D0190020F0B583B076
:1013100005000E0017001800089900F025FA0300D8
:10132000089A140200943A0031002800FFF78CFF5D
:1013300003B0F0BD10B582B0802464000094FFF7C4
:1013400083FF02B010BD0000014B8000C058704701
:10135000D0190020F0B5C64600B504000E001700F5
:101360001D00374800F000FA8046364BFA18364B1D
:101370009A4239D80100380000F0F6F90200103A1C
:1013800098235B009A4235D86B1E062B38D8069BF3
:10139000013B062B34D83F09474537D32D04069B24
:1013A0001B031D432368002B36DB284B9C4244D093
:1013B0000C2201239340264A1360264A1360264AD2
:1013C0001268190091430A1EF9D12660A060234BD0
:1013D000E31821321A602268002AFCDAE56008224C
:1013E0001A6080BCB846F0BD1D4B1E4A1E48112134
:1013F00001F0FEFE1D4B1B4A1B48192101F0F8FEAF
:101400001B4B184A18481C2101F0F2FE194B154AD3
:101410001548232101F0ECFE22683F231340B3421C
:10142000C3D1A3681B051B0D8342BED1E368EE2226
:10143000D2021340AB42B8D1D3E70D22B9E7C04680
:10144000001BB70080E84BD380F8A93200C00240EF
:1014500000E0004000F0004008C000400430000000
:101460003891001074A7001088910010CC910010E2
:10147000E89100103492001080239B000B43014A36
:10148000D36270470080054010B5010018231B8807
:1014900014221088984710BD10B5010018231B882E
:1014A00016221088984710BDF0B5C64600B5070053
:1014B0000E0000250123984600E00135B5420AD20E
:1014C000AC003C192068FFF7DFFF20600028F4D152
:1014D00000239846F1E7404680BCB846F0BD0000C6
:1014E000074BAA2212011A608D225200DA60054BC6
:1014F000054A1A60024B5B68002BFBDA7047C04656
:10150000004002400060024000B0FA0010B5040044
:1015100001E008CC9847024B9C42FAD310BDC0466C
:101520008C8C00107047000010B50248FFF7EEFFEA
:1015300010BDC046508C001010B50248FFF7E6FF02
:1015400010BDC046848C0010054B064A1A60064B3D
:10155000064A1A60064B1A68044B9343FAD1704747
:1015600000E00040BFCDFBFE00F00040FE7F3C00ED
:1015700008C00040044BDB6C002B03D1034B8022DE
:10158000D2021A607047C046000011504C20115022
:10159000044B054A1A60054B1B68DB43DB01FAD19B
:1015A0007047C04600F00040FFFFFF0108C0004048
:1015B000034B40229A675A671A67DA667047C0463B
:1015C00000F0014010B5FEF7F3FF10BD10B50C4A56
:1015D0000C4BD21A92101400302A00D930229200FB
:1015E0000948084900F0C8FC04E0084A064BA1007D
:1015F000CA5001342F2CF8D9034B054A936010BD13
:10160000C00100100001001000000020C101001006
:1016100000ED00E070B50420FFF796FE064900F0EB
:10162000A3F805000024002C00DD70BDE0B2290005
:10163000FFF722FF0134F6E740420F0030B583B0D8
:10164000274B00229A67FFF74BFF264B01221A60B7
:10165000234B5B6C012BFBD1234B03221A60204BE5
:101660009B6B012BFBD10133009304331F4A0121F3
:101670001F48FFF76FFE052300931E4A01211E48F5
:10168000FFF768FE1D4B002202210420FFF752FEE7
:101690001B4D2B00002201210520FFF74BFE194CAA
:1016A0002300002200210720FFF744FE2300002230
:1016B00000210820FFF73EFE8023DB00009323007B
:1016C000002200210920FFF721FE2B00002200212B
:1016D0000620FFF72FFEFFF79DFF03B030BDC04689
:1016E000008000403CB0004030B00040002F6859FE
:1016F00000800240008C864700C00240001BB700FB
:1017000040597307006CDC0201480421014B184763
:10171000300C0020A9140010124A936F9B0815D2B8
:101720009066D166002905D0FFE7FFE7FFE7516F1C
:10173000106F704704B580210906C2175140002878
:1017400000D0C84307F04CFA002104BDF0B5146E78
:10175000556E576F166FFFF7E3FF146655665767B0
:101760001667F0BD000000D0114A936F9B0813D29A
:1017700010665166002905D0FFE7FFE7FFE7516FCC
:10178000106F704704B5002801D00020C04307F057
:1017900027FA002104BDC046F0B5146E556E576F90
:1017A000166FFFF7E5FF1466556657671667F0BDBD
:1017B000000000D094464A4A926F9208624601D2D5
:1017C00028E0C046F0B5464E346E756E776F366FC2
:1017D00000F020F89446424A14665566576716672B
:1017E0006246F0BD94463E4A926F9208624601D22C
:1017F00054E0C046F0B53A4E346E756E776F366F72
:1018000000F04CF89446364A1466556657671667DA
:101810006246F0BD002B24DB11D000293EDA00B572
:10182000C943404200D1013100F038F8C943404279
:1018300000D10131DB43524200D1013300BD002A07
:10184000EBD1002801D1002905D00020C90FC9071C
:1018500001D1C043410800B507F0B2F900220023CE
:1018600000BD00B500290ADBDB43524200D1013341
:1018700000F014F8C943404200D1013100BDC94312
:10188000404200D10131DB43524200D1013300F02C
:1018900005F8DB43524200D1013300BD002923D1BA
:1018A000002B18D1002A0CD0BC460D4F38667A6642
:1018B00000210023FFE7FFE7FFE77A6F386F6746F5
:1018C0007047002801D00748010000B507F078F9FB
:1018D0000022002300BD02000B0000200021704701
:1018E000000000D0FFFFFFFF002B00D0BFE0130C73
:1018F00028D1002AE7D080B4114F39667A66FFE715
:10190000FFE730B4040C7B6F396F1B0423433B6645
:101910007A66FFE7FFE7FFE7C04684B27B6F3D6F63
:101920001B0423433B667A66FFE7FFE7C0460023BC
:101930002C042D0C7A6F386F00196941B0BC7047C8
:10194000000000D0F0B594460025140E01D112021B
:101950000835140F01D112010435940F01D1920002
:101960000235D40F01D152000135D40B0134254F7B
:101970007C66254C3C660E0C93B2FFE7FFE7FFE761
:101980003C6F6643360C7703BE467343DF0B5B0444
:10199000C01AB941130C7343DB18C91ACE08664349
:1019A000360CB64493B273431F0F1B01C01AB941E2
:1019B000130C73431F0B1B05C01AB941860D8F0210
:1019C0003E436643360C092D24DB520A7243801ACB
:1019D0007703460A6643360C16235B1BDE40DF4066
:1019E000BF1964466643821B704604350633010006
:1019F000D940A840C01900D30131A24206D2002329
:101A0000F0BD0000000000D0FFFFFFFF121B0130FF
:101A1000F3D3F1E709277F1BFE406446A2B272436D
:101A2000801A00D20139220C7243130C1204821A5C
:101A300099410B007046043513370100F940A84066
:101A4000801900D30131002B02D1A2420AD2F0BD8D
:101A5000013000D30131121BFAD2013BF8D1A2426E
:101A600000D2F0BD013000D30131121BF7E7F0B511
:101A70001C0C00D080E00CB400251C0A04D11B0211
:101A8000160E3343120208351C0B04D11B01160F2E
:101A90003343120104359C0B04D19B00960F334352
:101AA00092000235DC0B02D192185B4101351C001B
:101AB000971864410134464F7C66464C3C660E0CD8
:101AC000FFE7FFE7FFE7C0463C6F6643360C77034E
:101AD000BE4697B27743C01B00D20139C01B00D26B
:101AE00001399FB27743C91BC91B170C77437E048A
:101AF000FF0B801BB941CE086643360C0C2D33DB3F
:101B0000B644120B1F053A431B0B97B27743C01B19
:101B100000D201399FB27743C91B170C77433E04AB
:101B20003F0C801BB941860D8F023E436643292737
:101B30007F1BFE400C3D7746AF40BF1930BCA2B2C0
:101B4000ABB272437343801A9941220C7243130C57
:101B50001204801A994102000B000137001BA941B1
:101B6000F9D2781E0021F0BD0C277F1BFE4077467E
:101B70007F0BAF40FF19E0E700245D1C07D0144F36
:101B80007D663966FFE7FFE7FFE7FFE73C6F95B249
:101B90009EB265436643401BB141150C1E0C654364
:101BA000664336042F0C3E432D04401BB14199423D
:101BB00004D202000B0020000021F0BD01D19042B0
:101BC000F7D3801A994101349942F2D3F6E7000025
:101BD000000000D0FFFFFFFF48404140484018B4DC
:101BE000134B5B68019308BD18B4114B1B6801933C
:101BF00008BD94460F4A926F920805D2624618B407
:101C00000B4BDB68019308BD0A4AF0B5146E556EA4
:101C1000576F166F6246FFF7F2FF064A1466556665
:101C200057671667F0BD18B4014B9B68019308BD58
:101C3000E0200020000000D0FFB55040424050405E
:101C400059404B40594000E0FFB5154F4C00640D22
:101C500003D0BC4204D10C0314D80020090D09059F
:101C60005C00640D03D0BC4204D11C030AD80022DE
:101C70001B0D1B0501264B4009D44B4003D58B425D
:101C800000D18242FFBD9942FCD19042FFBD0B437F
:101C9000DB1803431343F5D0C9434918FFBD0000C7
:101CA000FF07000000B5FFF7CFFF804100BDC04631
:101CB00000B5FFF7C9FF01D9002000BD012000BD1C
:101CC00000B5FFF7B9FF01D9002000BD012000BD1C
:101CD00000B5FFF7B1FF804100BD012040054A007B
:101CE000121804D85A00121801D800207047012099
:101CF000704700000021002805D17047C1174840F7
:101D0000401AFAD0C90713B5064B1B6898470CBC9C
:101D1000441CA2401005120B0349091B0905194375
:101D2000114310BDE02100201F04000010B54C003D
:101D3000620D8023D218DB00D21A5B057E2A10DDEB
:101D40009E3A13DACC170903490819435242D1408D
:101D5000640001341532202A05DAD040084360437C
:101D600010BD002010BD0846604310BDC80FC0184C
:101D7000013810BD18B4024B5B6A019308BD000026
:101D8000E020002010B50148FEF7AAFB5092001099
:101D900070B513231C78012C12D0012C12DC214BBE
:101DA000214A93642148FFF76FFB214B186070BDF7
:101DB00020491D4A9800815001331F2BF8D9ECE7C8
:101DC0000023FAE71C48FFF767FB05001B48FFF7F5
:101DD00063FB023803789B007F2B09DD12488022C9
:101DE000290000F0C9F8022C08D0022CDADCD6E772
:101DF000134B144A1448332101F0FAF9134B1A8893
:101E0000B5231B029A4209D1114B1A88114B9A42F1
:101E100004D1114B1A88114B9A42E6D00020FEF7EC
:101E20005FFBC046611E0010E02000204C33000024
:101E3000E0210020851D001053440000534600009F
:101E40006892001080A70010AC9200105438000077
:101E5000D8380000494600009C3800005946000070
:101E600007B56046002800D100BE01880A0A02308A
:101E7000DF2AFAD1C9B2820804D30288408800045C
:101E8000104300E00068024A5050039007BD000074
:101E9000E020002051434343C9188C46110C83B203
:101EA0004B4310B4040C614392B280B2504362437E
:101EB0001C041B0C001910BC59411304120CC0184F
:101EC000514161447047000010B50148FEF708FB1E
:101ED000E08C001070B513231E781848FFF7DCFA69
:101EE0000500012E11D0012E09DDAB1E1B789B00D1
:101EF0007F2B1DDD12488022290000F03DF811489B
:101F0000FFF7C2FA104B186070BD0D48542229002B
:101F100000F032F8002300E001331F2BE3D8084A19
:101F20009C00A258002AF7D10849054AA150F3E7BE
:101F3000074B084A0848422101F05AF9534600006D
:101F4000E42100204C330000E0210020C91E0010D5
:101F50000493001094A70010389300100148042146
:101F6000014B1847400C0020A9140010014B1B68BE
:101F700018470000400C0020014B5B681847000028
:101F8000400C00209A4200D288547047704710B528
:101F9000002802D00B684968984710BD0100002056
:101FA00007E083001B185B00501C08601078C01805
:101FB00030380A681378303BDBB2092BF1D970470F
:101FC000F0B5DE4657464E464546E0B583B09346EB
:101FD0001F000C9B9A460D9C0E9B99460F9B9B07DE
:101FE00017D0B8460F00060022E0551C4B4641466C
:101FF0002020B84701342A00B442F6D33D004F46B2
:102000005C46019B9B46B1464646B84637002E00CB
:102010000EE00192A34688464E46B9460700EBE71C
:10202000013C551C5346185D43463900B0472A0011
:10203000002CF5D135003E0047460F9B9B0711D47D
:10204000100003B0F0BCBB46B246A946A046F0BDA6
:10205000541C4B4641462020B8472200531BB34234
:10206000F6D3EDE7B0464E46B9462F005D46F5E79C
:10207000F0B5CE46474680B585B0944698460C9D4F
:102080000D9C0EAB1B789946109A119B129EB707B8
:102090001CD4002B0CD0F7070AD54F46002F02D1D5
:1020A0000C37374204D0013B02E030272F55013472
:1020B000944201D21F2CF8D9F70707D59C4205D2CC
:1020C0001F2C03D830272F550134F5E7F70612D51A
:1020D000770505D4002C03D0944221D09C421FD018
:1020E0000F9A102A2FD00F9A022A36D01F2C0AD806
:1020F00030222A5501341F2C05D84A46002A32D0F6
:102100002D222A55013403960293019400954346EB
:102110006246FFF755FF05B0C0BCB946B046F0BDFA
:10212000621E012C17D00F9F102F0BD014000F9A96
:10213000102AD8D1B206D6D51F2CD4D858222A5569
:102140000134D3E7023CB206F1D41F2CEFD8782239
:102150002A550134CAE71400C2E71F2CD3D86032D5
:102160002A550134C2E7720703D52B222A550134C0
:10217000C9E73207C7D520222A550134C3E7F0B595
:10218000DE4657464E464546E0B593B081468A4600
:10219000089209931CAB10CB1B789B461E9D219B7C
:1021A0009846002C03D1102342469A439046802340
:1021B000DB0046461E4042461A4218D0002C22D070
:1021C000002614E0424692061BD54121C918C9B227
:1021D0000A39C9B2771C0AAB995529002000FFF7CC
:1021E000C3FAAC4210D31F2F0ED83E0004002900C2
:1021F0002000FFF7B9FACBB2092BE3D83033D9B2BC
:10220000E8E76121E2E7270043460693209B059318
:102210001F9B049303955B46029301970AAB0093BF
:10222000099B089A51464846FFF722FF13B0F0BCBD
:10223000BB46B246A946A046F0BDF0B5DE465746BD
:102240004E464546E0B597B00A900B910C929A46DF
:10225000209B9946219F22AA13789B46249B099391
:10226000259C289B98464A463A4302D11032934314
:1022700098468022D20045461540434613420AD074
:102280004A463A4341D000252E0053460D934D4611
:10229000099B9A4621E02E0053460D934D46099B1B
:1022A0009A461AE04246920623D54122D218D2B26B
:1022B0000A3AD2B2731C99460EAB9A555246230085
:1022C00028003900FFF78EFABC4220D813D04B46C5
:1022D0001F2B16D84E4605000F005246230028003B
:1022E0003900FFF77FFAD3B2092BDBD83033DAB2EB
:1022F000E0E76122DAE7AA45E9D94E460D9B9A4606
:1023000008E04E460D9B9A4604E0002602E04E4649
:102310000D9B9A4643460693279B0593269B049361
:10232000099B03935B46029301960EAB00935346C1
:102330000C9A0B990A98FFF79BFE17B0F0BCBB46AE
:10234000B246A946A046F0BDF0B5DE4657464E4619
:102350004546E0B591B0804689460C929A461A9C53
:102360001B9D22002B0020002900FFF7B6FC00284F
:1023700000D0F2E001225242D54B20002900FFF7A5
:10238000A7FC002800D0E8E001225242D14B2000F7
:102390002900FFF787FC002800D0DEE000220023A0
:1023A00020002900FFF77EFC002800D0EAE0069418
:1023B00007958023DB001E9A1A400D921E9A1A423E
:1023C00001D106231C930698079902000B0008927E
:1023D000099303000A00024300D1DFE0080D400525
:1023E000400DBD4EB4466044079E3203120B1E00E2
:1023F000BA4B13431F00FFF781FCB94AB94BFFF7F3
:1024000012FCB94AB94BFFF7EFFB08900991002283
:10241000B74B30003900FFF7E2FBB64AB64BFFF787
:1024200002FC02000B0008980999FFF7DDFBFFF79B
:102430007DFC8346FFF762FC06000F00AF4AB04BFD
:10244000FFF7F1FB0022AF4BFFF7CEFBFFF76EFC6F
:102450000890AD4AAD4B30003900FFF7E4FB0600B1
:102460000F000898FFF74AFCA94AAA4BFFF7DBFBCD
:1024700002000B0030003900FFF7B1FB06000F002F
:1024800002000B00FFF7CFFB0A900B91089BA24ABA
:102490009446634400210022089109921B05099388
:1024A0000023089332003B0030003900FFF79CFB0B
:1024B0000E900F9132003B0000208021C905FFF7EC
:1024C0008EFB06000F000022944B0A980B99FFF731
:1024D00090FB0022924BFFF787FB02000B000A984B
:1024E0000B99FFF786FB00228E4BFFF77DFB020066
:1024F0000B000A980B99FFF77CFB02000B003000E1
:102500003900FFF771FB02000B000E980F99FFF7DF
:1025100070FB0022714BFFF767FB089A099BFFF7DE
:1025200082FB06000F0008960997069A079BFFF7A3
:10253000CFFB00280BD001235B429C46E3440022E2
:10254000774B30003900FFF754FB089009915B4648
:102550006333C62B45D8042623E01E9B04931D9BA2
:1025600003931C9B02930094019553460C9A494691
:10257000404600F0FBF811B0F0BCBB46B246A9469D
:10258000A046F0BD00210022069107920694802308
:102590001B069C46AC44634607930AE700239B4610
:1025A00004261E9B1B0528D5089A099B1900114378
:1025B0000FD05D4A5D4B06980799FFF781FB002815
:1025C0007AD000225A4B06980799FFF76BFB002838
:1025D00072D01C9B5B4506DD5A469B1A013B1C933F
:1025E00003E00526DDE700231C938023DB001E9A11
:1025F0001A431E92002600239B461D9B9E4265D2D5
:102600009F1B02231E9A1A400A921E9A134202D05E
:10261000002E00D000275B46002B07D0089A099BAC
:1026200006980799FFF7E5FA069007910022002324
:1026300020002900FFF736FB002800D07CE03D4B4E
:102640001E9A1340049303971C9B0293069B079CBE
:102650000093019453460C9A4946404600F086F890
:10266000002E00D187E71E9B9B0671D54525441C93
:102670005346020049462800C0475A46D317D2188D
:102680005A4005230593013E0496002303930A3321
:1026900002935B46DB0F01930092534622004946AA
:1026A0004046FFF76CFD0A9B002B00D163E7020058
:1026B00047460C9E1D9D53E01C9B002B9DD00D9BFF
:1026C000002B9AD01C9B013B1C9396E7002798E7B0
:1026D000FFFFEF7FFFFFEFFF01FCFFFF0000F03F78
:1026E000FB799F501344D33FB3C8608B288AC63F01
:1026F0000000F83F61436F63A787D23F71A3790958
:102700004F930A400000E03F1655B5BBB16B024045
:10271000EF39FAFE422EE63FFF03000000002C4096
:1027200000002440000018402D431CEBE2361A3F05
:1027300080842E41FFF7FFFF069C079D22002900A1
:1027400080200006844661440B000692079376E7DA
:1027500065258CE7541C534649462020B847220083
:10276000931BAB42F6D3100005E7C046F0B5DE463A
:1027700057464E464546E0B595B0069007919346BC
:102780009946209F1E9A1F9B10001900FFF7A5FA7B
:10279000002831D101225242BC4B1E981F99FFF7ED
:1027A00081FA002837D101225242B94B1E981F9955
:1027B000FFF78EFA00283DD10022B64B1E981F99D4
:1027C000FFF786FA00284AD10022B34B1E981F99C2
:1027D000FFF768FA002842D1002200231E981F99B3
:1027E000FFF760FA00284AD100239846229B5B0538
:1027F00000D4B0E0002452E0229B0393219B02937B
:1028000003230193A54B00934B465A46079906981C
:10281000FFF7D6FB08E1229B0393219B029304233D
:1028200001939F4B00934B465A4607990698FFF732
:10283000C7FBF9E0229B5B070ED59A4B0422229935
:10284000039121990291019200934B465A460799B0
:102850000698FFF7B5FBE7E0934B0322EFE7229BD7
:102860000493219B039302971E9B1F9C009301944A
:102870004B465A4607990698FFF766FDD4E01E9A24
:102880001F9B00200021FFF7AAF91E901F91012332
:102890009846ABE70CAB30221A55013F01341F2C90
:1028A00001D8092FF6D81E981F99FFF73FFA0500A7
:1028B000FFF724FA02000B001E981F99FFF78FF90B
:1028C0007A4BFA009B181A685B680A920B93FFF721
:1028D000AAF908900991FFF74DFA0600FFF70AFAE6
:1028E00002000B0008980999FFF779F908900991FF
:1028F00000226F4BFFF7ECF900282ED00136300094
:10290000FFF7F8F902000B000A980B99FFF7D0F9CE
:10291000002801D001350026002F2CD12800FFF718
:10292000EDF902000B001E981F99FFF758F90600F9
:102930000F0000225E4BFFF7B5F9002846D10022B8
:102940005B4B30003900FFF7C3F900283ED1EB079D
:102950003CD501353AE006274CE70022544B089855
:102960000999FFF79FF90028D6D1002E01D0F3076F
:10297000D2D50136D0E7AA461F2C11D8013F0A2133
:102980003000FEF7F1FE651C30310CAB19550A2101
:102990003000FEF7E9FE092E0ED906002C00EBE709
:1029A00055461F2C0CD87B1E002F09D00CAA3021B5
:1029B00011551F000134F4E72B0055461C00F0E7C9
:1029C0001F2C03D80CAB2E221A5501341F2C10D803
:1029D0000A212800FEF7A0FE661C30310CAB195509
:1029E0000A212800FEF798FE051E01D03400EDE70D
:1029F00034000323229A1340012B1CD01F2C06D82D
:102A00004346002B32D00CAB2D221A550134229BA9
:102A10000393219B029301940CAB00934B465A46BF
:102A200007990698FFF7CCFA15B0F0BCBB46B24642
:102A3000A946A046F0BD219B002B13D04346002B96
:102A400002D10C3313420FD0219B013B219319007B
:102A500003E00CAB30221A5501348C42CED21F2C2D
:102A6000F7D9CBE72199F8E72199F6E7229B5B0795
:102A700004D50CAB2B221A550134C8E7229B1B0747
:102A8000C5D50CAB20221A550134C0E7FFFFEFFF7C
:102A9000FFFFEF7F65CDCD4165CDCDC1DC9300104B
:102AA000E0930010D0930010D893001098A9001064
:102AB0000000E03FF0B5DE4657464E464546E0B5DD
:102AC00093B007008A4693461193002900D12CE366
:102AD000002508E06C1C5B462A005146B847119B54
:102AE000013311932500119B1878002800D11EE3B3
:102AF0002528EFD1013311930023180020E0012392
:102B0000184301321192012418E0022318430132C4
:102B10001192012412E0042318430132119201247E
:102B20000CE00823184301321192012406E010231F
:102B3000184301321192012400E00024002C09D036
:102B4000119A1378203BD9B21029F6D88B00C449CA
:102B5000CB589F468146119B1A781300303BDBB25D
:102B6000092B10D92A2A13D00B94119B1A782E2ADC
:102B700020D0119A1378683BD9B2122965D88B00FE
:102B8000B849CB589F4611A8FFF708FA0B90ECE71D
:102B90001C9B1A1D1C921B68002B04DB0B93119BC2
:102BA00001331193E1E702220100114389465B42A0
:102BB0000B93F4E78022D2004946114389465A1C00
:102BC00011925A781300303BDBB2092B0BD92A2A19
:102BD000CFD11C9B1A1D1C921C68002C08DB119B7A
:102BE00001331193C5E711A8FFF7D8F90400C0E736
:102BF0000024F4E780235B0049460B43511C1191EC
:102C000051786C2901D099461FE0C0239B004946AA
:102C1000194389460232119217E0802349460B433B
:102C2000511C11915178682901D099460DE0C023BB
:102C30004946194389460232119206E080235B001F
:102C400049461943894601321192119B1878672829
:102C50001CD8252800D25EE20300253BDAB2422AC6
:102C600000D958E29300804AD3589F4680239B00A6
:102C700049461943894601321192E6E780235B00F9
:102C800049461943894601321192DEE7782800D976
:102C900041E2692800D23EE20200693AD2B2012341
:102CA0009340724A134210D11A0600D50CE25B051C
:102CB00000D430E21C9B1A1D1C921E68002C00D010
:102CC000BAE101225242330096E16F2842D005D882
:102CD000582841D0622803D1022606E078283DD04A
:102CE00010234A469A4391460A26582838D0692824
:102CF00005D0642803D00C224B46934399464B469B
:102D00005A0502D501229343994669282DD064289B
:102D10002BD04B469A0500D5AAE0DA0500D5C2E0D3
:102D20005A0600D4D3E01C9A111D1C911168FF2291
:102D30000A404B4605930B9B049303940296002391
:102D4000019300925B462A0051463800FFF717FABC
:102D500005002AE00826C8E71026C6E71026C4E7C3
:102D600020224B4613439946C1E74B469A0520D48F
:102D7000DA0551D45A0666D51C9A111D1C911168AA
:102D8000FF220A40D017111841404B4605930B9B78
:102D9000049303940296D20F019200915B462A009D
:102DA00051463800FFF7EBF90500119B01331193F1
:102DB00099E61C9A073207218A43110008311C91B9
:102DC000116853689C46DB170C930D930C9A0D9B6E
:102DD000100048400E900D9B61464B400F930E989B
:102DE0000F990C9A0D9B801A99410E900F914B46AA
:102DF00008930B9B07930694049600230593634660
:102E0000DA0F0292009001915B462A005146380089
:102E1000FFF713FA0500C8E71C9A111D1C911268F0
:102E2000D0171118414005930B9B0493039402960D
:102E3000D20F019200915B462A0051463800FFF7FD
:102E40009EF90500B1E71A0605D51C9A111D1C91C3
:102E50000023D25E96E71C9A111D1C91126891E71F
:102E6000FCA7001040A800108CA8001041900000A2
:102E70001C9A073207218A43110008311C910893DC
:102E80000B9B0793069404960023059302935368C3
:102E90001268009201935B462A0051463800FFF702
:102EA000CCF9050081E71C9A111D1C9105930B9B21
:102EB00004930394029600230193136800935B46E6
:102EC0002A0051463800FFF75AF905006DE71A0647
:102ED00006D51C9A111D1C9112681204120C28E7C9
:102EE0001C9A111D1C91126823E746281AD01C9BBE
:102EF0000733072293431A0008321C924A46049271
:102F00000B9A039202941A685B68009201935B46E5
:102F10002A0051463800FFF729FC0500119B0133B8
:102F20001193E0E520234A461A439146DFE76728DC
:102F300001D0472804D180231B014A461A439146F9
:102F4000452801D0472803D120234A461A439146F9
:102F50001C9B0733072293431A0008321C924A46EF
:102F600004920B9A039202941A685B680092019390
:102F70005B462A0051463800FFF7E6F90500119B31
:102F800001331193AFE502234E461E404A461342D9
:102F90001ED001241C9B1A1D1C926A1C9046187896
:102FA0005B462A005146B847002E14D1119B0133CD
:102FB0001193454697E5551C5B4651462020B8477E
:102FC00023002A005C1C0B999942F4D81500E1E714
:102FD00001232A00F6E7424606E0561C5B465146AE
:102FE0002020B8472C003200651C0B9BA342F4D86C
:102FF0009046DBE701330A001978002902D0511E00
:10300000002AF7D19B1B8022D200494611408846F6
:103010004946114202D0A34200D923000222494668
:103020001140109149460A4208D02A0025009946CD
:103030003B004746984626E0220044E6A1462A0087
:103040005146B2460E0006E0551C5B46310020207A
:10305000B84723002A005C1C0B999942F4D815004C
:1030600022004C46330056469A4691462A002500D7
:103070003B004746984606E01D000136541C5B465F
:103080005146C04722003078002804D0002FF4D0E9
:103090006B1E002DF0D115004B464746109A002AB2
:1030A00003D1119B013311931DE50B9E2A0006E00D
:1030B000551C5B4651462020B84723002A005C1C63
:1030C0009E42F5D81500ECE721234A461A43130027
:1030D0001C9A111D1C9112680593082304930394F4
:1030E000083302930023019300925B462A00514665
:1030F0003800FFF744F80500119B01331193F2E407
:103100006C1C5B462A0051462520B847119B0133B1
:1031100011932500E7E46C1C5B462A005146B84732
:10312000119B013311932500DDE40A4FD0E45D4586
:103130000DD35B465A1E5B4651460020B847280017
:1031400013B0F0BCBB46B246A946A046F0BD2A006B
:10315000F1E7C0468D1F00100CB430B585B00A00F1
:1031600008AC08CC0394054D009401002800FFF73B
:10317000A1FC05B030BC08BC02B01847851F001088
:1031800010B584B00C0002A902904C6001240448E0
:10319000009313006242FFF78DFC04B010BDC046DF
:1031A0008F1F001000BEFDE7D0B5041E15D0FEF73E
:1031B00043F80B4B1A685B68801A994106000F00B0
:1031C000084A0023FEF7F6FA20606160054A0023F2
:1031D00030003900FEF7EEFAA2600020D0BDC046F4
:1031E000500F002040420F0010B5FFF7DBFF00003A
:1031F00030B583B00D001900002A0BD0074B084CE6
:10320000019200932B000200200000F045F90120FC
:10321000FFF7C8FF034B1A00F1E7C046E893001020
:10322000F8930010E08C001010B5EFF30583002B2D
:1032300000D000BEFEF778F9034C01E008CC9847B7
:10324000024B9C42FAD310BD8C8C0010988C00105D
:1032500010B50300080011001B68984710BD00005E
:10326000F8B507000D001600437D002B02D00024A6
:1032700000200CE003681100280098472DE03B7DFA
:1032800010E03B68154802219847601C0134B442A5
:1032900014DA002CF3DD2B19013B1B780D3B5A424D
:1032A0005341DBB22A5D0A2AF0D1002BEED1A042B5
:1032B000E7DA3B68211A28189847E2E7B04203DAB8
:1032C0003B68311A28189847002E06DDAD19013DDC
:1032D0002B780D3B5A4253413B75F8BDE8A90010CD
:1032E00070B505000368002B16D00C4B1C6805E078
:1032F000290004C92000FFF7B3FF2469002C09D07E
:103300002368002BF9D0064B1B68002BF0D0A3429A
:10331000F3D1EDE700232B6070BDC046F819002003
:10332000041A002070B505000C000B68802B05D036
:1033300023685A1C2260E418257170BD0800FFF74D
:10334000CFFFF5E710B5FDF777FF074A0023121806
:103350004B41002B03DB054805F052FC10BD012258
:103360005242034BF7E7C04640420F00C80D002011
:10337000FFFFFF7F10B5024805F01AFC10BDC046E4
:10338000C80D0020F0B5CE46474680B583B0060094
:103390000D0090461C00FFF7D5FF81466B1C05D041
:1033A000002C08D0184F194B1C6807E0300005F0BE
:1033B000C7FB0500F4E7164FF5E72469002C17D08A
:1033C0002368002BF9D0134B1B68002B01D0A342BC
:1033D000F3D12A0031002000B8474346002BECD03F
:1033E0006B46D91D0A230B7001222000B847E4E781
:1033F0004B46002B05D1280003B0C0BCB946B046EF
:10340000F0BDFFF7B7FFF6E761320010F8190020B2
:1034100051320010041A002010B5064B1C6800E061
:103420002469002C04D06368002BF9D09847F7E793
:1034300010BDC046F819002070B5050005F080FBEE
:1034400004000123012201002800FFF79BFFFFF782
:10345000E3FF200070BD0000F0B5A3B004000E0033
:10346000FFF770FF050001AF002301930948330007
:1034700022003900FFF784FE04003800FFF730FF18
:10348000FFF7CAFF002D02D1200023B0F0BDFFF7E7
:1034900071FFF9E7253300100FB400B583B004A91C
:1034A00001C90191FFF7D8FF03B008BC04B0184769
:1034B0007047000000000000000000000000000055
:1034C0000BA10CC9126892009B581868203080F339
:1034D0000988022080F31488BFF36F8F3FBCAE468B
:1034E00008BC04BC62B61847C046C046C046C046C9
:1034F000000000D03C1E002002E0D0231B069B6D84
:10350000D0231B061B6DDB07F7D4D0231B06FF223D
:103510001A65024B802252051A60704704ED00E0E4
:10352000EFF309811AA00CC8106880001B181868F6
:1035300020390160F0C144464D4656465F46F0C111
:10354000146E556E566F176F3039F0C1106808B59C
:1035500072B601F039FD62B60CBC11680868103013
:10356000F0C8A046A946B246BB4680F309880D22A2
:1035700012073038F0C81466556656671767F0C8EA
:103580001847C046C046C046C046C046C046C046B2
:10359000000000D03C1E002010B5FCF7B9FF000071
:1035A00010B502F0C5F8040001F028FC002803D093
:1035B000034B802252051A60200002F065FC10BD0A
:1035C00004ED00E070B504000D00FDF735FE241A8F
:1035D0008D41200029000A4A01235B42801859418D
:1035E000002906DC01D0002070BDFA239B00984220
:1035F000F9D3FA2292000023FEF7DCF8F4E7C04684
:1036000018FCFFFF10B5031F802464041C60043BFA
:103610001960044B01000C390B600300203B1A6059
:10362000403810BD99350010044B802252051A60B5
:10363000BFF34F8FBFF36F8F7047C04604ED00E0BC
:10364000EFF3108072B6704780F310887047000067
:1036500010B5D0231B061B68834204D0D0231B0661
:1036600000225A6510BD034B034A8121034889009B
:10367000FFF7BEFD8494001024AA001044940010AB
:1036800010B5094C00232360084A13600520FDF79C
:103690005BFEFA218900FEF767F80138044B1860D9
:1036A0000723236010BDC04610E000E018E000E0F2
:1036B00014E000E070B5234B1A78D0231B061B687A
:1036C0009A4212D0204A1168FF231B040B43136057
:1036D0001E490E2002F01EFE1D490B2002F01AFEAC
:1036E000D0231B06FF221A650FE0FFF7C9FF164A19
:1036F0001168FF231B060B43136016490F2002F0CD
:1037000009FEDFE7D0231B069B6DD0231B061B6D34
:10371000DB07F7D4D0252D062C680F34FF212000BD
:10372000FDF71AF90C492000FCF7E0FF0121200009
:10373000FCF7CAFFFFF7C4FE286801F045FCFFF75D
:103740002BFFC046500C002020ED00E0213500107A
:10375000B1340010A1350010F934001010B5134B2E
:103760001B78FF2B06D0124B124AB7211248490092
:10377000FFF73EFD0E20FCF70FFF0F20FCF70CFFBC
:103780000A4B00221A70D0231B061B68934206D0F6
:103790000A4B084ABB2108484900FFF729FD02F0FF
:1037A000F7FD074802F08AFEFFF784FF500C002067
:1037B000A894001030AA001044940010C494001083
:1037C000C537001010B572B6FFF774FF10B50A4B7D
:1037D0001B78FF2B0CD0EFF30580002805D0D023F9
:1037E0001B061B684000C01810BD01F0D1FCFBE7B0
:1037F000D0231B061868F7E7500C002010B582B0E4
:103800000A0003681C498C46634499100C005C2B29
:1038100001D918390C000121A140184B1B78FF2B4E
:1038200020D040BF0368BFF35F8F0020186082F391
:103830001088EFF30583DBB2002B04D1104B18681E
:1038400000F04EF916E0002301930D4B186801AA11
:1038500000F098F9019B002B0CD00A4B80225205F6
:103860001A6007E040BF0368BFF35F8F0021196053
:1038700082F3108802B010BD00FFFF2F500C002013
:103880005C23022004ED00E0F0B583B005000F00DA
:1038900016001C00EFF30583DBB2002B32D1036866
:1038A000002B35D02A4A1278FF2A37D03000210069
:1038B000FFF788FE031E3CD02A68BFF35F8F00210C
:1038C000116087F31088234A10682A6822498C46C1
:1038D000624491100D005C2A01D918390D000121B4
:1038E000A94000930023012200F06AF81B4B5B6A99
:1038F0009C4226D8194A926AB24227D29C4220D0D2
:10390000012021E0164B174A17481849FFF770FCB1
:10391000174B144A14481749FFF76AFCBFF35F8F2F
:1039200000221A6081F3108830002100FDF7C4FBEB
:103930000AE02B68BFF35F8F00221A6087F31088BC
:10394000D4E7FFF771FE002003B0F0BD0120FBE7D4
:10395000500C00205C23022000FFFF2F0040054098
:10396000D8940010ECA90010449400104B040000FF
:10397000449500104C04000010B500F014F8014B01
:10398000186010BD5C230220002A03D1014206D139
:10399000100003E00840884203D000207047012057
:1039A000FCE70120FAE710B51C2002F009FE041E16
:1039B00003D0002308C000F0F1F8200010BD000083
:1039C000F0B5C64600B506000D0017009846002861
:1039D0002FD080235B04994232D2002937D002F0E5
:1039E0003BFA002802D1069B002B37D101F0AEF93B
:1039F0003468424629002000FFF7C6FF002834D073
:103A0000002F48D02300AB4333600023069302F01D
:103A100075F8069B002B08D000283FD002F066FA0C
:103A2000040083013DD52402240A200080BCB8464E
:103A3000F0BD254B254A48212548FF31FFF7D8FB2B
:103A4000244B224AA42122484900FFF7D1FB224BF4
:103A50001E4A4A211E48FF31FFF7CAFB1F4B1B4A73
:103A6000A6211B484900FFF7C3FB069B002BCED0C5
:103A7000002F0DD100214346002B02D08023DB0410
:103A800019432943301D069A01F00CFC0024BEE7BF
:103A900080214904EFE700230693B8E701F0FAFD1F
:103AA000BCE701F011FE3468424629002000FFF710
:103AB0006BFF002804D0002F02D02300AB433360FB
:103AC00001F05CFEAFE7C0465895001058AA001000
:103AD000649500108C950010C4950010DC950010C2
:103AE000F8B504000D0000280DD080235B04994236
:103AF0000FD206000C3601F029F9206923682B4308
:103B00002360002717E0174B174A18481849FFF79A
:103B10006FFB184B144A15481749FFF769FB2168DA
:103B20001940994206D111E0236880218904194384
:103B300002F0BEF82800B0420CD0456802681302BB
:103B40001B0A5101EBD421680B42F3D0D201EBD513
:103B50001F43E9E72568BD43256001F0CFFF28003A
:103B6000F8BDC0465895001044AA00106495001096
:103B700032020000309600103302000010B5FFF74B
:103B8000AFFF10BD10B51300034C0A000100200068
:103B900002F086FB10BDC0467D3B001003000833D9
:103BA0004360012252428260C360036100230360CC
:103BB000704700230361704743684B609A688A60CE
:103BC000516099600861036801330360704730B544
:103BD0000D686B1C10D0030008331C005B681A686A
:103BE000AA42FAD963684B6099608C606160086191
:103BF00003680133036030BD0469F3E7036941687A
:103C000082688A60416851605A68824205D0002209
:103C10000261186801381860704782685A60F6E7D8
:103C20000300406A002803D01B6B1B682020C01AC9
:103C3000704710B5040001F047FDA26BE36B9A4298
:103C400004D0002401F09AFD200010BD0124F9E702
:103C500010B5040001F038FDA36B002B04D1012442
:103C600001F08CFD200010BD0024F9E770B50400C0
:103C70001500866B026C002A0CD10368002B03D060
:103C800000200136A66370BD806801F0EBFB0023C5
:103C9000A360F6E7002D0DD14068FEF76DF963686B
:103CA000226C9B186360A26893421AD323686360F6
:103CB0002800E6E7C068FEF75FF9E368226C51422E
:103CC0009B1AE3602268934202D2A3685B18E36008
:103CD000022D01D00020D4E7002E04D0013E0020A8
:103CE000CFE72800CDE70020CBE710B503000800A0
:103CF0001A6C002A0AD0DC68A418DC6099688C422F
:103D000001D31968D960D968FEF736F910BD0000F3
:103D100070B582B00190846C002C0AD0A26BE36B6A
:103D20009A420CD2A26B934210D80025280002B010
:103D300070BD1A4B1A4A1B481B49FFF759FA1B4B17
:103D4000174AD12117480901FFF752FA4523E65CCB
:103D500076B2002201A92000FFF788FF0500731C3E
:103D60000AD1636A002BE1D02000243001F07CF9F5
:103D70000028DBD00125D9E701F03AF88642D5D2F8
:103D80007F2E04D0013676B24523E654CEE7084BA9
:103D9000034AD32103480901FFF72AFA6496001069
:103DA00000AB0010789600100F0D000098960010E0
:103DB000E096001070B5050001F086FC4523EC5C30
:103DC00064B20AE06B6A002B17D02800243001F09F
:103DD0004BF900280ED1013C64B2002C0DDDAB6C18
:103DE000002BEFD02800FFF793FF0028F3D001F05D
:103DF000C5F9F0E701F0C2F9EDE74523FF22EA54E7
:103E000001F0BCFC01F060FC4423EC5C64B201E016
:103E1000013C64B2002C0BDD2B69002B08D028007C
:103E2000103001F021F90028F2D001F0A7F9EFE7F6
:103E30004423FF22EA5401F0A1FC70BDF8B5040050
:103E40000D0000282AD0C26B002A51D0036C002636
:103E5000110C1F0C002935D1391E26D1002E47D157
:103E600001F032FC2268E36B206C010059435118C9
:103E7000A1600021A1636260013B4343D218E2606C
:103E8000FF234422A3540132A354002D27D12369D8
:103E9000002B1BD101F072FC0120F8BD184B194A10
:103EA00038211948FF31FFF7A3F9101C92B29BB2D9
:103EB000534380B289B241431B0CC918090CCDD0C1
:103EC0000126CBE7180CFBD1181CEFE720001030BF
:103ED00001F0CAF80028DDD001F0DCFBDAE72000B1
:103EE0001030FFF75BFE20002430FFF757FED1E7CC
:103EF000064B044AB62104484900FFF779F9C04649
:103F00000497001044AB0010789600100C97001036
:103F100070B51D00049C00290BD12460E06321646E
:103F200001212000FFF78AFF5023E5540023A364FA
:103F300070BD2260F2E70000F0B583B004000D0010
:103F4000170000282ED00022030C080C002B25D1CE
:103F5000031E16D1002A25D12800604303005533E3
:103F600020D8543002F02CFB061E07D00200543239
:103F700000903B0029002000FFF7CAFF300003B08B
:103F8000F0BD201CA6B2A9B2714380B29BB24343DC
:103F9000090C5B181B0CDDD00122DBE7290CFBD1DF
:103FA000281CEFE7024B034A03480449FFF720F9B6
:103FB0003097001030AB0010789600102D020000F2
:103FC000F0B585B004000F0001921E00002813D048
:103FD000002917D0022E02D1E36B012B1BD101F077
:103FE0003BFF051E1DD1019B002B5BD04D4B4E4A64
:103FF0004E484F49FFF7FCF84E4B4B4A4B484E4951
:10400000FFF7F6F8036C002BE4D04C4B464A4748C8
:104010004B49FFF7EDF84B4B434A44484A49FFF7F9
:10402000E7F800253EE0A56B320039002000FFF7DD
:104030001DFEA36C002B10D0022E01D1002D04D147
:104040002000FFF765FE002804D101F097FB012056
:1040500005B0F0BD01F01EFBF7E7636A002B04D149
:104060000028F2D001F016FBEFE72000243000F02A
:10407000FBFF0028E9D001F00DFBE6E701F07EFB35
:104080000020E5E702A801F06DF8013517E00022F5
:10409000E2541FE00022E25421E02000FFF78AFEF4
:1040A00001F02CFD01F010FBA26BE36B9A42BAD336
:1040B000022EB8D0019B002BE0D0002DE2D001F001
:1040C0005DFB00F043FE01F0FFFA4423E25C52B2D4
:1040D0000132DCD04523E25C52B20132DAD001F089
:1040E0004DFB01A902A801F059FE002813D12000C0
:1040F000FFF79FFD0028D0D001992000103001F07B
:10410000B1F82000FFF756FE01F0F8FC0028C9D1F5
:1041100001F0C0FAC6E72000FFF74CFE01F0EEFC0C
:10412000002095E7DC9500101CAB0010789600107D
:10413000BE03000004970010B90300003C97001074
:10414000BA03000094970010BB03000010B50028CC
:1041500007D0002383600360C36000220021FFF7C3
:104160002FFF10BD10B5020000210120FFF7E4FE73
:104170000400FFF7EBFF200010BD0000F0B5D646AD
:10418000474680B583B004000F0001921D0000284F
:1041900019D000291DD0022D02D1E36B012B21D1B2
:1041A00001F0C6FA8046A26BE36B9A4220D3022D3F
:1041B0001ED00024404601F067FE200003B0C0BCC2
:1041C000BA46B046F0BD324B324A33483349FFF766
:1041D0000FF8036C002BDED0314B2E4A2E483149AC
:1041E000FFF706F8304B2B4A2B483049FFF700F811
:1041F0004523E65C76B2A36B9A462A00390020007C
:10420000FFF734FD731C25D1A36C002B10D0022DB9
:1042100002D15346002B2FD12000FFF779FD002853
:104220002CD0019A002A2BD0012313600124C1E76E
:10423000636A002B01D10124BCE72000243000F088
:1042400013FF00281ED0019A002A1DD001231360FD
:104250000124AFE700F0CCFD864217D27F2E05D0B7
:10426000013676B24523E6540124A3E7104B094AF0
:1042700009481049FEF7BCFF01249BE7012499E798
:10428000012497E7012495E7012493E7012491E7AE
:1042900004970010E4AA0010789600109304000020
:1042A0003C970010940400009497001095040000BF
:1042B000E096001021050000F0B585B004000E0066
:1042C000019200280ED0002912D001F0C5FD051E74
:1042D00018D1019B002B4FD0434B444A44484549D9
:1042E000FEF786FF444B414A41484449FEF780FFB0
:1042F000036C002BE9D0424B3C4ABE213C48C9002C
:10430000FEF776FF002537E031002000FFF7EDFCD7
:10431000013FA7632369002B04D101F02FFA01208C
:1043200005B0F0BD2000103000F09EFE0028F4D053
:1043300001F0B0F9F1E701F021FA0020F0E702A85E
:1043400000F010FF013521E044230022E25428E070
:1043500045230022E25429E02000FFF72BFD01F065
:10436000CDFB09E02000FFF725FD01F0C7FB200091
:10437000FFF76EFC002835D101F0A6F9A76B002FDE
:10438000C2D1019B002BD6D0002DD8D001F0F6F978
:1043900000F0DCFC01F098F94423E35C5BB20133EC
:1043A000D2D04523E35C5BB20133D1D001F0E6F912
:1043B00001A902A801F0F2FC0028D3D12000FFF7E8
:1043C00047FC0028C8D001992000243000F04AFFA3
:1043D0002000FFF7EFFC01F091FB0028CCD101F0A9
:1043E00059F9C9E700209BE7DC950010D4AA00101A
:1043F00078960010F505000064980010EC050000A8
:104400007098001070B584B0041E01910BD0036C3D
:10441000002B0ED101F020FD061E16D1019B002BB2
:104420000DD1050058E0514B514A52485249FEF710
:10443000DFFE524B4E4A4F485149FEF7D9FE514BD1
:104440004B4A4C485049FEF7D3FE0025002643E076
:10445000013BA3632368002B07D02369002B08D1FD
:1044600001F08CF9012004B070BD01F04DFDA06099
:10447000F3E72000103000F0F7FD0028F0D001F045
:1044800009F9EDE701F07AF90020ECE702A800F065
:1044900069FE01362AE044230022E25431E045233C
:1044A0000022E25432E001F00FF9A06800F074FF3E
:1044B000050001F063F939E02000FFF77BFC01F013
:1044C0001DFB09E02000FFF775FC01F017FB200041
:1044D000FFF7BEFB002838D101F0F6F8A36B002BE4
:1044E000B6D1019B002BCDD0002ECFD001F046F9E4
:1044F00000F02CFC01F0E8F84423E35C5BB20133EC
:10450000C9D04523E35C5BB20133C8D001F036F972
:1045100001A902A801F042FC0028D3D12000FFF736
:1045200097FB0028C8D02368002BBCD0019920003D
:10453000243000F097FE2000FFF73CFC01F0DEFA8B
:104540000028C9D101F0A6F8C6E7002D01D100204E
:1045500089E701F0B9F82000FFF762FB0100A068CD
:1045600001F00CF801F00AF9F1E7C0466498001078
:10457000C0AA00107896001085060000E49700108D
:1045800089060000DC9500108E06000010B5041EA0
:1045900006D001F099F8A46B01F0F0F8200010BDEE
:1045A000024B034A03480449FEF722FECC98001050
:1045B000A8AA0010789600109E08000070B5002888
:1045C00004D0002922D00024002209E0104B114A17
:1045D00011481249FEF70CFE114BEC1814E00132A1
:1045E000072A0FD80E4BD5005B195B688342F3D0C6
:1045F000002CF4D10A4BD500EB58002BEFD1084B1F
:10460000EC18ECE7002C01D02160606070BDC04662
:10461000CC98001084AA001078960010CC0B0000F3
:104620009C23022010B500280AD00022072A14D8A3
:104630000A4BD1005B185B68834208D00132F5E772
:10464000074B084AC22108480901FEF7D1FD034B78
:104650000A000021D1509B18596010BD9C230220F4
:10466000CC9800106CAA00107896001010B5041EAB
:1046700005D0FFF7D7FF200002F066F810BD034B0E
:10468000034A04480449FEF7B3FDC04604970010EE
:1046900098AA001078960010D708000070B50400A2
:1046A0000D00160001F010F84423E35C5BB2013307
:1046B0000DD04523E35C5BB201330CD001F05EF812
:1046C000A36B002B0BD02000FFF774FB70BD4423BD
:1046D0000022E254EDE745230022E254EEE72000F9
:1046E00024303200290000F023FEECE7084B1B6861
:1046F0001B68002B04D1074B012252421A607047FD
:10470000034B1B68DB681A68024B1A60F7E7C04668
:10471000481E00207423022010B50400406B02F0F4
:1047200013F8200002F010F810BD0000F8B5DE46C6
:104730004F4680B507000E0014009B460A9D686B2B
:104740009200A521FDF712FC6B6B264A9446644447
:10475000A4001B19072293439946002E0DD0002474
:104760000F2C07D8325D2B1940331A70002A01D064
:104770000134F5E74F230022EA54089B1F2B2BD866
:10478000089B2B63AB6528000830FFF712FA28005E
:104790001C30FFF70EFA6D612023089A9B1AEB611B
:1047A000AD625A4639004846FEF72CFF28600123C7
:1047B0005B42AB630C4B9F4202D00C4B9F4203D138
:1047C000EB6B01221343EB63099B002B00D01D60B0
:1047D000C0BCBB46B146F8BD054B064A0648074972
:1047E000FEF706FDFFFFFF3F61580010594800101B
:1047F000FC98001054AD0010DC9800107A070000FF
:10480000F0B587B00490059116001F00900001F0EC
:10481000D7FE051E1DD07C2001F0D2FE041E14D050
:104820007C220021FDF7A2FB656300230393029421
:104830000D9B01930C9B00933B003200059904985B
:10484000FFF774FF200007B0F0BD280001F07CFFE7
:10485000F8E70400F6E7000010B5FEF7E5FE034BAD
:104860001B68022BFBD9FEF7DFFEF8E7581E00207D
:1048700070B5002407E0A3001B1998000E4BC01868
:10488000FFF78CF901341F2CF5D90C4D2800FFF7E8
:1048900085F90B4C2000FFF781F90A48FFF77EF9F4
:1048A0000948FFF77BF90948FFF778F9084B1D60C5
:1048B000084B1C6070BDC046581E002034230220E7
:1048C0004823022088230220FC230220E823022020
:1048D000481E0020501E0020F8B5D0231B061D687E
:1048E000294BAA00D358002B0BD0836B002B02DB83
:1048F000836B012B47DD066B013E002301246442DC
:1049000006E0224B224A23482349FEF771FC01337B
:10491000012B20DC214A99008F583F6B8A58D26BBB
:10492000D20700D5013F1D4A99008A58926B002A90
:10493000EDDB1A4A8A58926B012AE8DC184A8A5839
:10494000002AE4D1BE42E2DB4268DA40D207DED57B
:104950001C003E00DBE7002C15DBAC420FD00F4BF8
:10496000A200D3589B6B02330DD02000FEF770FEDF
:104970000A4BA400E358022252429A6303E0084B18
:10498000A4000122E250F8BDF02202200C99001090
:1049900044AD0010DC980010870300003C1E00208E
:1049A0001C240220F8B5CE46474680B504007A4B59
:1049B0001D687A4B1B689946012B11D1784B8200F8
:1049C000D1588969D3581A6B93009B189B00754A7C
:1049D0009B1899420BD0494600239C4600275DE076
:1049E000714B724AFF2172488900FEF701FC6C4F3F
:1049F00083009846D8590830FFF700F94346DB5941
:104A00001B6B4246D15908319800C0188000654B95
:104A1000C018FFF7D1F8DEE7AB0058198000083066
:104A200080185B199B00D218D36806E05168E140FA
:104A3000C9071BD4002F41D15B6883422AD0DA68B2
:104A4000916B0131F2D05649A60071589142F1D1D3
:104A5000916BA14202D0916B023114D15168E140B7
:104A6000C907E7D5946339004F4614E04C4BA100C9
:104A7000C858012676428663C85884469463CA5053
:104A800039004F4607E04B4B484A8A214848C90045
:104A9000FEF7AEFB3900002D12D0013D002F0FD1E3
:104AA000404AAB005B199B009B58002BB4D10029F6
:104AB000F1D0394A1368013B1360ECE73900EAE7AB
:104AC000012F03D0C0BCB946B046F8BD6346002BE9
:104AD000F8D099691A6B93009B189B0031481B18FA
:104AE0009942EFD163465B6810006146C96BC90704
:104AF00000D5501E1A00E240D20704D5284AA4006F
:104B0000A2585268934303221A400124644200E0F1
:104B1000013F002F24DB3B001100F940C907F7D506
:104B20001F4DBE007159096B7559ED6BED0700D52E
:104B3000013901259D40AA438842E9DD184D9E00B8
:104B40007559AD6B002DE3DB154D7559AD6B012D1E
:104B5000DEDC194D7359002BDAD13C000800D7E791
:104B6000002CAFDBD0231B061B689C420FD00C4BE4
:104B7000A200D3589B6B0233A4D02000FEF768FD3F
:104B8000074BA400E358022252429A639AE70A4B69
:104B9000A4000122E25095E708230220DC23022032
:104BA0003C1E0020581E00204099001074AC0010DC
:104BB000DC9800106C9900101C24022010B501290B
:104BC00015D8002B36D01368002B21D12C4B440074
:104BD0001B195B5C002B16D02A4B5B5CDBB2FF2BF6
:104BE0000BD0284A535C0133DBB253541BE0264BF5
:104BF000264A2748DE21FEF7FBFA264B234A2448A3
:104C0000E521FEF7F5FA1368002BFCD0BFF35F8FA8
:104C10001C4B5B5C002B07D11A4B01225A54184BDA
:104C200040001B185A5410BD1B4B184A1848EB2162
:104C3000FEF7DEFA124B44001B195B5C002B13D00D
:104C4000104B5B5C002B15D00E4C635C013BDBB260
:104C50006354002BE7D10A4B40001B180020585426
:104C6000BFF35F8F1060DEE70C4B084A0848F12164
:104C7000FEF7BEFA0A4B054A0548F221FEF7B8FADC
:104C8000E8220220EC220220CC990010CCAC0010CB
:104C9000DC990010289A0010549A0010809A001095
:104CA000B09A001070B5D0231B061C681F4BA200E1
:104CB000D658B36B023338D11D4BA200D558002D06
:104CC00025D100231B4A01212000FFF777FFB36B9A
:104CD000023324D162B672B6D0231B061C680123AE
:104CE000144A01212000FFF769FF0123124A002125
:104CF0002000FFF763FF0E4BA200D550002DD8D146
:104D000000230D4A00212000FFF758FFD1E70021C2
:104D1000D1500023084A2000FFF750FFD1E7074B8E
:104D2000074A08480849FEF763FA70BD3C1E002098
:104D3000F02202203C0100D0380100D0DC9A0010A3
:104D4000E0AC0010DC9800105D03000070B51C4B57
:104D50001B68002B29D0EFF3108672B6D0231B06F8
:104D60001868184B8200D358002B1FD10123164A14
:104D70000121FFF723FF154B1B68002B1CD0D0230C
:104D80001B061C68124D01232A0000212000FFF79A
:104D900015FF0E4A13680133136000232A00002117
:104DA0002000FFF70BFF86F3108870BD094B0A4AFD
:104DB0000A480B49FEF71CFAFFF774FFDFE7C0460D
:104DC000DC230220F02202203C0100D0002302203C
:104DD000380100D0149B0010FCAC0010DC980010CF
:104DE0003D0F0000014B18687047C0461024022098
:104DF000014B18687047C046F822022070B5634B1B
:104E00001B68002B00D0BAE0614B1D6801351D60A6
:104E1000002D10D15F4B1B681B68002B11D15D4A20
:104E200011685D4B1868106019605C4A13680133A3
:104E30001360FFF75BFC5A4B1B68AB4236D900236B
:104E400061E0584B584A59485949FEF7D1F9544B3B
:104E5000012252421A60F2E7514A1360EFE70269F9
:104E60005A603AE00022C2621A68013A1A60026B84
:104E7000504B1B689A4201D94E4B1A604E4B910021
:104E800089188A009A185268C260916801614C6062
:104E90009460016B8A005618B400E4188461B40071
:104EA000E4580134B100CC50FFF716FD394B1B68B4
:104EB0001B68002BCBD0374B1B68DB68D868836836
:104EC0009D42C9D38369C16802698A60C168516023
:104ED0005A6804000834A242C1D0002282611A68D4
:104EE000013A1A60C36A002BC1D0016A426A8A6023
:104EF000016A5160596802001C329142B2D1426A83
:104F00005A60AFE70133012B0FDC2C4A99008A5815
:104F1000106B29498200121890004258012AF1D9D9
:104F2000274A990001208850ECE7D0231B061E6811
:104F30000024002503E0224B0121D1500134012C33
:104F400022DC1F4BA200D358002BF7D0B44214D060
:104F5000D0231B061B689C42EDD0184BA200D358EF
:104F60009B6B0233EAD02000FEF772FB134BA200CA
:104F7000D358022252429A63E0E70125DEE7114A44
:104F80001368013313600025280070BD0023022040
:104F900010240220481E0020501E002078230220EA
:104FA00074230220409B0010A8AC0010DC98001075
:104FB0009212000008230220581E00203C1E0020F0
:104FC0001C2402208423022010B5040001231C4A63
:104FD0000121FFF7F3FD01231A4A00212000FFF70A
:104FE000EDFD194BA200D358002B14D1174B1B68B1
:104FF000002B16D0164BA2000121D1500023114ADC
:1050000000212000FFF7DAFD00230D4A01212000D6
:10501000FFF7D4FD10BD0F4B0F4A10481049FEF7A3
:10502000E7F80B4BA2000021D1502000FFF7BAFC9B
:10503000D0231B061A680B4B9200D358DEE7C046FC
:105040003C0100D0380100D0F022022000230220D1
:105050001C240220149B001094AC0010DC9800105B
:105060005C1400003C1E002010B5C368D8680028FE
:105070004ED0C36A016A426A8A60016A51605A6806
:1050800001001C318A4249D00022C2621A68013AEA
:105090001A602B4B1B68002B46D18369C1680269DB
:1050A0008A60C16851605A6804000834A24238D04E
:1050B000002282611A68013A1A60016B214B1B6859
:1050C000994201D91F4B19601F4A8B005B189B0046
:1050D000D3185B68C360996801614C609C60046B85
:1050E000A300191989008918816119198900895843
:1050F00001311B199B009950FFF7EEFBD0231B06D3
:105100001A68124B9200D058002800D0012010BD20
:105110000F4B104A10481149FEF76AF8426A5A606C
:10512000B2E702695A60C3E70D4B5A68026294689D
:10513000446261609160C3621A6801321A60DBE701
:105140000023022008230220581E00201C240220D5
:10515000B89B001000AC0010DC9800102A1500006D
:1051600088230220034B1B680360034B1B684360CA
:105170007047C0467823022010240220D0231B064B
:105180001A68024B92000121D15070471C24022062
:10519000EFF3108172B6D0231B061A68024B9200FF
:1051A000D05881F3108870473C1E0020F0B5C646E9
:1051B00000B504000D00264B1E68264B1F68264BC9
:1051C0001B689846FFF7E4FF79230022C254FFF7DB
:1051D000DFFF0830FEF712FD631C01D1002D0FD157
:1051E0003419FFF7D5FF8460A64222D9FFF7D0FF1C
:1051F000010008314046FEF7EAFC80BCB846F0BD2D
:10520000164C6568FFF7C4FFC560FFF7C1FFAB68C8
:105210000361FFF7BDFFAB6808305860FFF7B8FFC8
:105220000830A860FFF7B4FF84612368013323606E
:10523000E3E7FFF7ADFF010008313800FEF7C7FCD8
:10524000074B1B68A342D8D9054B1C60D5E7C04665
:1052500010240220481E0020501E0020E8230220B7
:105260007423022070B504000D0000280BD0FFF756
:105270008FFF01001C312000FEF7A9FC012128004E
:10528000FFF794FF70BD034B034A04480449FDF740
:10529000AFFFC046E09B00105CAC0010DC98001033
:1052A000B514000070B504000D001600002825D0CC
:1052B000184B1B68002B27D0FFF76AFF80231B06C3
:1052C0002B43C3616568FFF763FF0562FFF760FF6B
:1052D000AB684362FFF75CFFAB681C305860FFF7B8
:1052E00057FF1C30A860FFF753FFC46223680133E7
:1052F000236001213000FFF759FF70BD064B074ABC
:1053000007480849FDF774FF074B044A044807495A
:10531000FDF76EFF00230220E09B00103CAC001064
:10532000DC980010D3140000EC9B0010D714000090
:10533000F8B504000F00150000281FD04668FFF7DD
:1053400027FF0662FFF724FFB3684362FFF720FFE1
:10535000B3681C305860FFF71BFF1C30B060FFF7CC
:1053600017FFC462236801332360002D01D0012799
:105370007F4229003800FFF719FFF8BD024B034AAE
:1053800003480449FDF734FFE09B00101CAC0010FB
:10539000DC980010F314000070B5041E58D0056BA3
:1053A000FFF7F6FE036B9D424AD2E369002B0EDA4B
:1053B000A169226B93009B189B00284A9B18994275
:1053C0000CD0FFF7E5FE036B2363012041E0FFF7FC
:1053D000DFFE026B20239B1AE361E9E72500083515
:1053E0002800FEF70BFCFFF7D3FE016B21631C4B7B
:1053F0001B68994201D91A4B1960184A8B005B1837
:105400009B00D3185B68E360996821614D609D60E3
:10541000206B8300191889008918A1611918890067
:10542000895801311B189B009950A36B002B02DB9C
:10543000A36B012B0EDD2000FFF74EFA012008E0E0
:10544000A46DFFF7A5FE036B9C4205D3002000E08E
:10545000002070BD0120FCE70120FAE7581E002063
:105460000823022070B5041E6ED0FFF791FE84421F
:105470000CD1E36D002B0FD0013BE365216BA26DD6
:10548000914263D0002B0DD000205EE0314B324AB8
:1054900032483349FDF7ACFE324B2F4A2F48324990
:1054A000FDF7A6FE250008352800FEF7A7FBA16D35
:1054B000216320235B1AE3612C4B1B68994201D9BD
:1054C0002A4B19602A4A8B005B189B00D3185B6833
:1054D000E360996821614D609D60206B830019181D
:1054E00089008918A16119188900895801311B1890
:1054F0009B009950A36B002B2ADBA36B012B01DDD2
:10550000012022E0A26BD0231B061B689A4208D020
:10551000A26B184B9200D3589B6B023308D1012029
:1055200013E0A26B144B92000121D15001200CE03A
:10553000A06BFEF78DF8A26B0E4B9200D35802229F
:1055400052429A63012000E0002070BD0020FCE779
:105550000120FAE7189C0010ACAB0010DC9800109A
:10556000631A0000409C0010641A00000823022007
:10557000581E00203C1E00201C24022070B5041E72
:105580000BD0C36D002B09D0856D8D4200D20D006C
:10559000226BAA4201D0012B06D070BD334B344A96
:1055A00034483549FDF724FEFFF7F2FD844251D01F
:1055B000226B2563E369002B02DB20235B1BE36185
:1055C000A16993009B189B002C4A9B189942E4D137
:1055D000250008352800FEF711FB216B284B1B68BE
:1055E000994201D9264B1960244A8B005B189B0015
:1055F000D3185B68E360996821614D609D60206B02
:105600008300191889008918A1611918890089581F
:1056100001311B189B009950A36B002BBDDBA36BC2
:10562000012BBADCA26BD0231B061B689A4217D051
:10563000A26B144B9200D3589B6B0233ADD0A06B7E
:10564000FEF706F8A26B0F4B9200D358022252428B
:105650009A63A2E70C4B064A06480C49FDF7C8FDC1
:10566000A26B0B4B92000121D15096E7409C001099
:1056700088AB0010DC980010C11A0000581E0020F2
:10568000082302203C1E0020589C0010DC1A000059
:105690001C24022010B5EFF3108472B6D0231B0631
:1056A0001B68074A99008A58002A06D0054A9B00C1
:1056B0000121995084F3108810BDFDF7B5FFF9E77B
:1056C000F02202201C24022010B572B6D0231B0643
:1056D0001C68124B1B68002B0BD0114BA200D35837
:1056E000002B07D00E4AA400A3580133A350012B6E
:1056F0000DD010BD01330B4A01212000FFF75EFAE7
:105700000123094A00212000FFF758FAEAE7074B76
:105710001B68002BEDD1FFF7C5FAEAE7DC23022076
:10572000F02202203C0100D0380100D000230220EA
:1057300070B5D0231B061C680D4B1B68002B02D1D3
:105740000025280070BDFDF77BFF0500094BA20076
:10575000D358002B05D0074AA400A3580133A35007
:10576000EFE70133044A00212000FFF727FAF2E7B0
:10577000DC230220F0220220380100D070B5D023B3
:105780001B061C68144B1B68002B0AD0134BA2008D
:10579000D358002B06D0013B104AA1008B50002BA0
:1057A00006D070BD0E4B0F4A0F481049FDF720FD83
:1057B0000F4BCD5800230F4A00212000FFF7FEF9C0
:1057C00000230D4A01212000FFF7F8F962B6002DF1
:1057D000E7D0FDF729FFE4E7DC230220F0220220D6
:1057E000809C001074AB0010DC980010FC1B0000C3
:1057F0001C240220380100D03C0100D010B50FE07D
:1058000020000830FEF7FAF9124A1368013B1360D2
:10581000114A1368013B1360FFF7B0FF002C14D14D
:105820000D4B1B68002B0DD0FFF74EFF0A4B1B687A
:10583000002B08D0094BDB68DC68A36B0133DFD099
:10584000FFF79CFF10BD0024E6E72000FEF764FF91
:10585000E6E7C046F8220220FC220220FC230220B8
:1058600010B5FDF7E1FEFFF7C9FF034B1B68022BE4
:10587000F9D9FDF7D9FEF6E7581E002010B504004F
:10588000FFF722FF1F4A1368013313601E4B1B688A
:10589000002B02D11368012B2CD01C4A1368013352
:1058A00013602365216B1A4B1B68994201D9184B71
:1058B0001960184A8B005B189B00D3185B68E36083
:1058C000986820612100083141609960206B830055
:1058D000191889008918A16119188900895801319E
:1058E0001B189B009950084B1B68002B05D1FFF734
:1058F00045FF10BDFEF7BCFFCFE72000FEF7ECFF31
:10590000F5E7C046F8220220DC230220042302200F
:1059100008230220581E002010B582B0059C019477
:10592000049C0094FEF76CFF002807D001235B4223
:105930004360FFF7A3FF012002B010BD01204042E9
:10594000FAE70000F0B587B01022002102A8FCF7AA
:105950000DFB00240D2C07D8184B1B5D02AA135514
:10596000002B01D00134F5E702AB00221A550025C7
:1059700001201AE012482B00303302A90B55631C9A
:105980000026CE548022AB000E4FDB190193009607
:1059900000239200FFF7C0FF01280CD1094BAA0099
:1059A000D3589D63084953500135012D03DC002D68
:1059B000E0D00648DFE707B0F0BDC046AC9C001061
:1059C00061580010642302203C1E0020594800103A
:1059D00010B5FFF7B7FF012804D0013014D00D4BEC
:1059E0001B6810BD00F02CFC0128F6D172B60A4BE2
:1059F000012252421A60094B02321A60084B0022FF
:105A00001A60FDF7ABFEEAE7064B074A074808496C
:105A1000FDF7EEFB6CAD001074230220DC230220A6
:105A200010240220B49C00100CAD0010DC98001073
:105A3000C30E000010B582B0069C0194049C009433
:105A4000FEF7DEFE002806D0059B4360FFF716FF39
:105A5000012002B010BD01204042FAE770B50400F9
:105A60000D00FFF731FE002C11D0200045601C4BCB
:105A70001B68002B08D0836B002B02DB836B012B90
:105A80000FDD2000FEF728FFFFF778FE70BDFFF75F
:105A90007FFB0028EAD1134B134A14481449FDF741
:105AA000A7FB846BE540ED07EED4D0221206126806
:105AB00094420FD00F4BA200D3589B6B0233E3D01C
:105AC0002000FDF7C5FD0B4BA400E3580222524213
:105AD0009A63D9E7084BA4000122E250D4E7C046FC
